:10000000B1C10000E0C10000DEC100000C94CF08C7
:10001000DAC100000C94DE080C94ED080C94FC0886
:100020000C940B09D0C10000CEC10000CCC100006F
:10003000CAC10000C8C10000C6C10000C4C10000A0
:10004000C2C10000C0C10000BEC10000BCC10000B0
:10005000BAC10000B8C10000B6C100000C94A118DC
:10006000B2C10000B0C10000AEC10000ACC10000D0
:10007000AAC10000A8C10000A6C10000A4C10000E0
:10008000A2C10000A0C100009EC100009CC10000F0
:100090009AC1000098C1000096C100000C9416148B
:1000A00092C1000090C100008EC100008CC1000010
:1000B0008AC1000088C1000086C1000084C1000020
:1000C00082C1000080C100007EC100007CC1000030
:1000D0007AC1000078C1000076C1000074C1000040
:1000E00072C10000DD19E019CF19D319D919171AF7
:1000F000E419E819EE19F219F619FC19001A041A94
:10010000171A0A1A0E1A121A4B2076616C7565209E
:100110003F004B2076616C7565203F004B20766177
:100120006C7565203F00455849540049322042759E
:1001300073203A004932203A200043757272656E8E
:10014000742072656164696E677300455849540094
:100150005632203D20005631203D200045786974FC
:10016000004E6F7468696E6720796574203A2800C4
:10017000457869740043616C6962726174696F6E7D
:1001800020446F6E65202100436C69636B206865B5
:100190007265207768656E2052445900536574205B
:1001A000323456206F6E20563100436C69636B20E9
:1001B00068657265207768656E2052445900536502
:1001C00074203056206F6E20563100343A2043554B
:1001D0005252454E542052454144494E47530033F4
:1001E0003A204144432052454144494E475300324E
:1001F0003A20434F4E46494755524520414443001B
:10020000313A2043414C4942524154494F4E2041DA
:10021000444300202020204D41494E204D454E555D
:100220000031353A31323A3035004275696C64201C
:100230006F6E203A004144432043414C49425241B1
:1002400054494F4E002020544553542050524F479C
:1002500052414D0000000A0B02090C0D0E08070365
:100260000401000000000000000000000000000089
:10027000000000000000000000000000000000007E
:10028000121110000000000000000000000000003B
:100290000000000000000000000001021020200803
:1002A00008102040102040800201020108040201D1
:1002B0000102040810204080804020100804020140
:1002C0008004020180402010080402010804020199
:1002D0000102040810204080010204081020408020
:1002E00005050505070508080808020202020A0AB2
:1002F00008080404040401010101010101010303D0
:10030000030303030303040707070C0C0C0C0C0C7A
:100310000C0C0202020206060606060606060B0B77
:100320000B0B0B0B0B0B00002200250028002B00F1
:100330002E003100340002010000050108010B010C
:1003400000002100240027002A002D003000330087
:1003500001010000040107010A01F70393062F0AB7
:10036000A616670A11241FBECFEFD1E2DEBFCDBFB4
:1003700000E00CBF12E0A0E0B2E0E6E3F9E400E048
:100380000BBF02C007900D92AE36B107D9F72AE035
:10039000AEE6B2E001C01D92A036B207E1F711E06F
:1003A000C1EBD1E000E006C021970109802FFE01DA
:1003B0000E94FC22CD3AD10780E00807A9F70E94ED
:1003C00094180C948A241CCE0F93FC0180E092E1D7
:1003D000AAE7B0E030E0481759076A077B0740F406
:1003E000B695A795979587953F5F3630A1F737E08B
:1003F00091E09327222311F020E501C020E70C7043
:10040000892F8695082B022B0083917091830F9181
:10041000089520915E0A222399F04FB7F894209115
:100420005E0A213059F42DB320935C0A3DB320912C
:100430005D0A209523232DBB4FBF02C040935C0A69
:100440008CBD9DBD08958EBD00000DB407FEFDCF8F
:100450008EB5089580915E0A882361F09FB7F89465
:1004600020915E0A80915C0A213019F48DBB9FBFF8
:1004700008958FBF089508950895FF920F931F93D5
:10048000CF93DF931F921F92CDB7DEB7F62E142FB6
:100490004091250250912602609127027091280216
:1004A00004E021E0CE0101968FDF89819A81B1DFDE
:1004B00080912402CDD58F2D8065C5DF80E0C3DF1C
:1004C000812FC1DF80912302C3D5C4DF0F900F902D
:1004D000DF91CF911F910F91FF9008950F931F937C
:1004E000CF93DF931F921F92CDB7DEB7162F4091A7
:1004F000250250912602609127027091280204E0A3
:1005000021E0CE01019660DF89819A8182DFF89433
:10051000809124029DD5812F806195DF80E093DF5B
:1005200080E590E00E94551980E08DDF182F7894C7
:10053000809123028DD58EDF812F0F900F90DF9158
:10054000CF911F910F910895EF92FF920F931F93F8
:10055000CF93DF9300D01F92CDB7DEB7162F409117
:10056000250250912602609127027091280204E032
:1005700021E0CE01019628DF89819A814ADFF89433
:100580008091240265D5812F80615DDF82E05BDF91
:1005900080E590E00E9455198E010F5F1F4F7E018C
:1005A00084E0E80EF11C80E04EDFF80181938F01BA
:1005B000EE15FF05C1F778948091230249D54ADFF3
:1005C00069817A818B819C810F900F900F900F90A1
:1005D000DF91CF911F910F91FF90EF900895462FDB
:1005E0004295407F486061E048CF8F929F92AF92E2
:1005F000BF92CF92DF92EF92FF921F93CF93DF9340
:10060000EC01F894ECDF10E062E0CE0167DF1F5FE1
:1006100087FFFACF1436C0F361E0CE0195DF61E0C9
:10062000CE0192DF6B017C016AE0CE018DDF4B01D0
:100630005C01C701B6010E94A2176B017C01C501D4
:10064000B4010E94A2179B01AC01C701B6010E9430
:100650000E1720E030E84BEB56E40E9430187894F7
:100660000E947617DF91CF911F91FF90EF90DF905E
:10067000CF90BF90AF909F908F9008951F93CF938E
:10068000DF93EC01162F60E029DF482F112311F0D2
:10069000486001C0477F60E0CE01DF91CF911F919C
:1006A000ECCE1F93CF93DF93EC01162F249A62E0D8
:1006B00015DF112321F02C9A482F406103C02C989C
:1006C000482F4F7E62E0CE01DF91CF911F91D5CEB2
:1006D0001F93CF93DF93EC01162F62E0FFDE482FCC
:1006E000112311F0446001C04B7F62E0CE01DF9125
:1006F000CF911F91C2CECF93DF93EC01F89460E0CD
:10070000E7DF60E0CE01CDDF60E0CE0168DF82EFA1
:100710009ADE6AE070E080E090E00E941C1961E0DF
:10072000CE0163DF6881CE01BCDF61E0CE01D0DFA6
:100730007894DF91CF910895CF93DF93EC01F894F3
:1007400060E0C6DF60E0CE01ACDF60E0CE0147DFF5
:1007500081EF79DE6AE070E080E090E00E941C1991
:1007600061E0CE0142DF6881CE019BDF61E0CE0116
:10077000AFDF7894DF91CF910895259A662311F029
:100780002D9A08952D9808951F93CF93DF93EC0130
:10079000162F62E0A3DE482F112311F0406401C040
:1007A0004F7B62E0CE01DF91CF911F9166CE0F9318
:1007B0001F93CF93DF93EC01062F142F0E946B2021
:1007C000209A289A0883198360E0CE01D6DF6881D9
:1007D000CE0167DF6981CE0151DF61E0CE01D4DF58
:1007E00061E0CE01DF91CF911F910F9171CFE3E7CF
:1007F000F2E087E58083118208956EE977E085E372
:1008000099E00E94FD1E61E085E399E00C94271FAA
:1008100064E377E085E399E00E94FD1E61E085E3F3
:1008200099E00C94271F6AEC76E085E399E00E943A
:10083000FD1E61E085E399E00C94271F66EF75E0EB
:1008400085E399E00E94FD1E61E085E399E00C9448
:10085000271F6DE575E085E399E00E94FD1E61E0CC
:1008600085E399E00C94271F60E676E085E399E044
:100870000E94FD1E61E085E399E00C94271F6DE95D
:1008800074E085E399E00E94FD1E61E085E399E054
:100890000C94271FCF93DF93FC0140836183415069
:1008A00042836150638381E08483168216A2CF0164
:1008B00047969F012F5D3F4FE901DC011D921D927C
:1008C0001992A217B307D1F7DF0117961D921D9257
:1008D000A817B907D9F782E08583DF91CF910895F2
:1008E00061E08EE099E00E94331C61E087EE98E0C1
:1008F0000E94331C61E080EC98E00E94331C61E0B0
:1009000089E998E00E94331C61E086E598E00E9446
:10091000331C61E08FE298E00E94331C61E088E0C4
:1009200098E00E94331C61E081EE97E00E94331C46
:1009300061E08AEB97E00E94331C61E08DE097E074
:100940000E94331C61E086EE96E00E94331C61E059
:1009500087E797E00E94331C61E080E597E00E9402
:10096000331C61E083EA96E00E94331C61E08CE76F
:1009700096E00E94331C61E089E396E00E94331CFC
:1009800061E082E196E00E94331C61E087EC95E033
:100990000E94331C61E080EA95E00E94331C61E014
:1009A00089E795E00E94331C61E08EE295E00E94A9
:1009B000331C61E087E095E00E94331C61E080EE2B
:1009C00094E00E94331C61E089EB94E00E94331CA8
:1009D00061E086E794E00E94331C61E08EEB93E0D7
:1009E0000E94331C61E086E093E00C94331CCF93AB
:1009F000C09129026C2F8DE798E00E94D31F6C2FC5
:100A00008EE997E00E94D31F6C2F8AEC96E00E943B
:100A1000D31F6C2F84E397E00E94D31F6C2F80E6D6
:100A200096E00E94D31F6C2F8DE595E00E94D31FA6
:100A30006C2F8DE994E0CF910C94D31F4DEF53E0D0
:100A400061E08EE099E00E94191C4DEF53E061E0F7
:100A500087EE98E00E94191C4DEF53E061E080ECB6
:100A600098E00E94191C4DEF53E061E089E998E09D
:100A70000E94191C48EC58E061E086E598E00E946D
:100A8000191C48E054E061E08FE298E00E94191CD4
:100A90004EE154E061E088E098E00E94191C49E2D0
:100AA00054E061E081EE97E00E94191C4FE354E0AE
:100AB00061E08AEB97E00E94191C48EC58E061E085
:100AC00087E797E00E94191C43E154E061E080E56C
:100AD00097E00E94191C49EC58E062E080E597E03D
:100AE0000E94191C48EC58E061E08DE097E00E94FC
:100AF000191C44E354E061E086EE96E00E94191C64
:100B00004CEC58E062E086EE96E00E94191C48EC3E
:100B100058E061E083EA96E00E94191C4DEF53E033
:100B200061E08CE796E00E94191C48EC58E061E017
:100B300089E396E00E94191C4DEF53E061E082E1E9
:100B400096E00E94191C48EC58E061E087EC95E0C3
:100B50000E94191C48EC58E061E080EA95E00E9490
:100B6000191C4DEF53E061E089E795E00E94191CE4
:100B700048EC58E061E08EE295E00E94191C48ECD8
:100B800058E061E087E095E00E94191C48EC58E0CD
:100B900061E080EE94E00E94191C4DEF53E061E0AB
:100BA00089EB94E00C94191CEF92FF920F931F9322
:100BB000CF93DF93EC0179016DDECE010E94181C0A
:100BC0000E81053098F410E0F801EE0FFF1FEC0FD6
:100BD000FD1FF08EE78AF70180810E946520FE01EB
:100BE000E00FF11F81A38E818F5F8E83DF91CF9104
:100BF0001F910F91FF90EF900895EF92FF920F9346
:100C00001F93CF93DF938C017B010E94181CF80186
:100C1000C681C530A0F4D0E0FE01EE0FFF1FE00F4B
:100C2000F11FF08EE78AC7010E946320C00FD11F19
:100C300089A3F80186818F5F868381E001C080E00F
:100C4000DF91CF911F910F91FF90EF9008950F9337
:100C50001F93CF93DF93EC0189011CDEB801CE0115
:100C6000DF91CF911F910F91C8CFEF92FF920F9319
:100C70001F93CF93DF93EC01EADFCE010E94181C93
:100C80008E818530B8F4E82EF12CF701EE0FFF1FAE
:100C9000EC0FFD1F108F078BF8016081718182813D
:100CA00093810E946920FE01EE0DFF1D81A38E81BC
:100CB0008F5F8E83DF91CF911F910F91FF90EF9007
:100CC0000895CF92DF92EF92FF920F931F93CF93ED
:100CD000DF93EC01BCDFCE010E94181C8E818530B1
:100CE000B8F4C82ED12CF601EE0FFF1FEC0FFD1F3C
:100CF000108F078BF80160817181828193810E943E
:100D00006720FE01EC0DFD1D81A38E818F5F8E8318
:100D1000B701CE01DF91CF911F910F91FF90EF901E
:100D2000DF90CF906ACFEF92FF920F931F9325E44D
:100D300032E040E061E08EE099E089DF25E332E0D7
:100D400041E061E087EE98E082DF2AE232E042E0B3
:100D500061E080EC98E07BDF21E232E043E061E09B
:100D600089E998E074DF09E918E020EC38E047EE03
:100D700058E06EE079E08DE798E00E94931F23E150
:100D800032E040E061E086E598E061DF20E032E0BB
:100D900041E061E08FE298E05ADF2FEE31E042E07F
:100DA00061E088E098E053DF2FED31E043E061E05F
:100DB00081EE97E04CDF2BEC31E044E061E08AEB20
:100DC00097E045DF8AEBE82E87E0F82E01EE17E08A
:100DD00028E038E04FE258E066E578E08EE997E0F9
:100DE0000E94A01F2EEB31E040E061E087E797E032
:100DF0002EDF2AEA31E041E061E080E597E027DF7D
:100E000040E557E067E777E084E397E00E94771FCB
:100E10002CE931E040E061E08DE097E018DF28E860
:100E200031E041E061E086EE96E011DF46EE56E00B
:100E30006DE077E08AEC96E00E94771F25E731E0CD
:100E400040E061E083EA96E002DF20E731E041E044
:100E500061E08CE796E0FBDE4CE756E063EA76E083
:100E600080E696E00E94771F21E631E040E061E0F5
:100E700089E396E0ECDE2CE531E041E061E082E1DF
:100E800096E0E5DE42E156E069E376E086EF95E044
:100E90000E94771F96E3E92E92E0F92E02EF15E00B
:100EA00026E531E040E061E087EC95E00ADF0EEEF8
:100EB00015E020E531E041E061E080EA95E001DF06
:100EC0002BE431E042E061E089E795E0C0DE29E70C
:100ED00035E040EA55E067EC75E08DE595E00E946D
:100EE000851F2AE331E040E061E08EE295E0AFDE6D
:100EF00029E3E22E22E0F22E09E515E024E331E0B9
:100F000041E061E087E095E0DCDE36E3E32E32E0AD
:100F1000F32E05E515E02BE231E042E061E080EEE2
:100F200094E0CFDE26E231E043E061E089EB94E03B
:100F30008EDE09EB14E020EE34E047E055E06EE28F
:100F400075E08DE994E00E94931F2CE131E040E0D0
:100F500061E086E794E07BDE22E232E041E065E09A
:100F60008FE494E021DE08E112E02CE332E042E07D
:100F700061E088E294E079DE21E232E043E065E07E
:100F800081E094E011DE01E014E028E234E04FE477
:100F900054E066E774E085EE93E00E94931F22E13F
:100FA00031E040E061E08EEB93E051DE22E232E09E
:100FB00041E066E087E993E0F7DD08E112E02CE329
:100FC00032E042E061E080E793E04FDE21E232E090
:100FD00043E066E089E493E0E7DD09E413E020E71D
:100FE00033E047E953E06EEB73E08DE293E00E945B
:100FF000931F28E031E040E061E086E093E027DEE7
:1010000022E232E041E067E08FED92E0CDDD08E1E1
:1010100012E02CE332E042E061E088EB92E025DE72
:1010200021E232E043E067E081E992E0BDDD01E9E1
:1010300012E028EB32E04FED52E066E073E085E726
:1010400092E00E94931F1F910F91FF90EF900895DF
:10105000909101019F6090930101909102019E7F08
:101060009093020190910A01916090930A0181305E
:10107000A9F058F0823091F580910201877F80932A
:1010800002018091020184601EC080910201877F6D
:1010900080930201809102018B7F15C08091020133
:1010A000886080930201809102018B7F809302010E
:1010B000809102018D7F8093020180910B018160FC
:1010C00080930B011FC080930201809102018D7FEC
:1010D0008093020180910B018E7FF2CF80910201FB
:1010E00088608093020180910201846080930201F4
:1010F00080910201826080930201809102018160EF
:101100008093020184E190E00C94551952988DB1BE
:101110008F708DB9F8941DBAE9E6F0E080818062A5
:10112000808380818F7E80838AEA80936A008DB37A
:10113000846F8DBB78940895CF9380917202882339
:1011400071F0C1E06C2F85E399E00E943E1F882377
:1011500019F0CF5FC830B1F71092720217C08091BA
:101160006F02882341F060E085E399E00E94271F29
:1011700010926F020BC080916E02882339F061E0FB
:1011800085E399E00E94271F10926E02CF91089587
:10119000089581E799E0D0CA81E799E0ACCA1F922F
:1011A0000F920FB60F9211248F9381E080937202F9
:1011B0008F910F900FBE0F901F9018951F920F9256
:1011C0000FB60F9211248F9381E080936F028F915D
:1011D0000F900FBE0F901F9018951F920F920FB691
:1011E0000F9211248F9381E0809370028F910F9062
:1011F0000FBE0F901F9018951F920F920FB60F926F
:1012000011248F9381E080936E028F910F900FBE17
:101210000F901F9018951F920F920FB60F921124E6
:101220008F9381E0809371028F910F900FBE0F908A
:101230001F90189520E04091290260912A0283E7CF
:1012400099E00E94331B40E152E06091220283E763
:1012500099E00E94EC1B48E052E06091210283E794
:1012600099E00E94EC1B40E052E06091200283E78D
:1012700099E00E94EC1B41E061E081E799E097DA98
:1012800045DF40EA56E861E070E085E599E0DAD2B2
:101290000FEF20ED37E040E050E063E085E599E0B6
:1012A00041D42FEF44E351E260E070E085E599E03E
:1012B00063D52FEF44E351E260E070E085E599E00B
:1012C00067D64FEF60E870E085E599E00E94601214
:1012D0004FEF67E085E599E00E942212AFDB87DBE4
:1012E000FFDA6DE778E085E399E00E94911E6EE9F0
:1012F00077E085E399E00E94911E6AEC76E085E351
:1013000099E00E94911E64E377E085E399E00E94F2
:10131000911E60E676E085E399E00E94911E66EFFB
:1013200075E085E399E00E94911E6DE575E085E327
:1013300099E00E94911E6DE974E085E399E00E94B6
:10134000911E65EE73E085E399E00E94911E62E0D4
:1013500085E399E00E94B51E40E052E062E085E33B
:1013600099E00E94D51E85E399E00E94F31E61E09A
:1013700085E399E00E94271FDFDE0E94EB180091B1
:101380008B0910918C0920918D0930918E09DC0117
:10139000CB01801B910BA20BB30B00911C0210918F
:1013A0001D0220911E0230911F02081719072A07FB
:1013B0003B0710F70E94EB1860938B0970938C0920
:1013C00080938D0990938E0985E399E00E94AC1E6D
:1013D0008D559540C9F461E081E799E006D96093A5
:1013E000F2057093F3058093F4059093F50562E0A0
:1013F00081E799E0FAD86093EE057093EF0580934A
:10140000F0059093F10521C085E399E00E94AC1EA0
:101410008D599440F1F460E085E599E03DD7609303
:10142000590570935A0580935B0590935C0560E0C5
:1014300085E599E0E1D6A0E0B0E080935505909372
:101440005605A0935705B093580585E399E00E948F
:10145000F31E85E399E00E94E81E8ECF08958F92D7
:10146000AF92CF92EF920F9380912B028F93809146
:101470002C028F9380912D028F9380902E02A0904A
:101480002F02C0903002E090310200913202209190
:101490003302409134026091350283E799E00E9463
:1014A000C01B81E799E00E943B0285E599E037D1B6
:1014B0000F900F900F9041E063E779E085E399E0AA
:1014C0000F91EF90CF90AF908F900C948A1E85E58E
:1014D00099E02AD181E799E00C943C028F929F9287
:1014E000AF92BF92CF92DF92EF92FF920F931F9332
:1014F000CF93DF9300D000D0CDB7DEB7FC01A22F91
:10150000AF70922F2083832F881F8827881F242F56
:101510002F73220F282B20FB37F93183822F8695DA
:101520004295469546954370352F330F330F432B25
:101530005295569556955370362F330F330F532BC4
:1015400062956695669563707370770F770F762B4B
:10155000342F3295330F330F307C8F73832B82837C
:10156000852F8295880F880F807C46954695482B5D
:101570004383872F8295880F880F807C56955695D8
:10158000582B54837695769565816C7F762B758381
:10159000A430B0F54F018781A130C0F59AE0968361
:1015A0008160878380E991E09387828784E690E079
:1015B00091878087A12CFAECBF2EAAE9CA2EBBE343
:1015C000DB2EE12CF12C00E010E030E040E050E0B8
:1015D00060E070E080E090E00E942323AA24AA94B7
:1015E000EFE7BE2EC12CD12C0E94C823942F852F4B
:1015F000F4012487358746875787A4E1B0E037C0D8
:10160000A430F1F1A83008F455C076C09AE0968372
:10161000816087838DE790E09387828789E190E0FE
:1016200091878087A12C8AECB82E9AE9C92E3BE3DA
:10163000D32EE12CF12C00E010E030E040E050E04F
:1016400060E070E080E090E00E942323AA24AA9446
:10165000EFE7BE2EC12CD12C0E94C823942F852FDA
:10166000F4012487358746875787A9E1B0E0492FE1
:10167000582F0E941923608B718B828B938B3CC0F7
:1016800082E4868387818E7F87838DE790E09387CE
:10169000828780ED92E1A3E1B0E084879587A687F9
:1016A000B78780E896E9A8E9B0E0808B918BA28BA0
:1016B000B38B22C08681807C8A608F73868387810A
:1016C0008E7F878320E233E03387228720E931E071
:1016D000318720871486158616861786108A118A08
:1016E000128A138A292F2F70263011F48CE103C03F
:1016F000273011F48EE2868326960FB6F894DEBF6B
:101700000FBECDBFDF91CF911F910F91FF90EF9052
:10171000DF90CF90BF90AF909F908F900895FC0185
:1017200010822FEF2183089508958F929F92AF9298
:10173000BF92CF92DF92FF920F931F93CF93DF93CD
:10174000CDB7DEB764970FB6F894DEBF0FBECDBF3E
:10175000FC012181261789F12081261770F1F62ED0
:101760008C01F6E06F9F500111244C0188E0880E37
:10177000911CF80132966F01AE1ABF0AC5018C0D9B
:101780009D1D0E947424F60181936F01E815F905EF
:10179000A9F7F801F1822281338144815581668164
:1017A0007781CE0101969ADE84E1FE013196D8015F
:1017B000189601900D928A95E1F764960FB6F89409
:1017C000DEBF0FBECDBFDF91CF911F910F91FF9074
:1017D000DF90CF90BF90AF909F908F900895CF9261
:1017E000DF92FF920F931F93CF93DF9326E0FC01CC
:1017F0003896DC01129601900D922A95E1F726E0C9
:10180000629FE00111248C010E5F1F4F6E0186E084
:10181000C80ED11CF801F1908F01CE010E947424F2
:10182000F81621F06F2DCE010E947C242196CC1554
:10183000DD0581F7DF91CF911F910F91FF90DF9030
:10184000CF9008958DEF99E00C9423161F93CF93BA
:10185000DF93162FEA01622F8DEF99E00E94261682
:10186000612F8DEF99E00E94D6156D2F8DEF99E0D5
:101870000E94D6156C2F8DEF99E00E94D6158DEF42
:1018800099E00E94A4168AE090E0DF91CF911F9129
:101890000C9455199F92AF92BF92CF92DF92EF9224
:1018A000FF920F931F93CF93DF93EC0188858F7086
:1018B00080678887CE0193DF88858F7009F451C0D7
:1018C000843008F0F9C02C893D894E895F896A858A
:1018D000762F72957695769573706B85E62FEE0F61
:1018E000EE0F8E2F872B762F7295769576957370E7
:1018F0006C85E62FEE0FEE0F9E2F972B6295669567
:10190000669563707D857370770F770FA72FA62B71
:1019100069856F77962EBC018A2F90E00E94742310
:10192000E0EAAE2EF6E8BF2ECC24C394D12CE12CF5
:10193000F12C00E010E00E94C82359016A017B01EC
:101940008C0120E030E44DE053E060E070E080E0A6
:1019500090E00E94C823822F292D482F532F65E045
:101960009EC02C893D894E895F896A85762F729544
:101970007695769573706B85E62FEE0FEE0F8E2FB2
:10198000872B762F72957695769573706C85E62FFA
:10199000EE0FEE0F9E2F972B6295669566956370FE
:1019A0007D857370770F770FA72FA62B69856F77CB
:1019B000962EBC018A2F90E00E947423B0EAAB2ED1
:1019C00016E8B12ECC24C394D12CE12CF12C00E0EC
:1019D00010E00E94C82359016A017B018C0120E0BC
:1019E00030E04AE658E160E070E080E090E00E947C
:1019F000C823822F292D482F532F65E0CE0126DFE3
:101A00008A85582F52955695569553709B85692F08
:101A1000660F660F262F252B592F529556955695F2
:101A200053709C85692F660F660F362F352B592F03
:101A300052955695569553709D859370990F990FB1
:101A4000492F452B50E01985A12FAA1FAA27AA1FAD
:101A50008F73880FA82BB0E00E94192328EE33E083
:101A600040E050E00E94BE222932310540F021358D
:101A7000310538F0213A310530F043E005C040E04F
:101A800003C041E001C042E0212F2F7750E0542FE6
:101A90004427550F550F550F4F69516260E0CE0135
:101AA000DF91CF911F910F91FF90EF90DF90CF903A
:101AB000BF90AF909F90CACEDF91CF911F910F91B1
:101AC000FF90EF90DF90CF90BF90AF909F900895E0
:101AD000CF93DF93D62FC42F642F8DEF99E00E9410
:101AE00026166D2F8DEF99E00E94D6158DEF99E0A7
:101AF0000E94A4168AE090E00E94551942E06C2FE3
:101B00008DEF99E00E94A2168DEF99E0C9D7D82FEA
:101B100080E0C82F8DEF99E0C3D78C2B9D2BDF91F0
:101B2000CF9108955F926F927F928F929F92AF9222
:101B3000BF92CF92DF92EF92FF920F931F93CF93BA
:101B4000DF93CDB7DEB764970FB6F894DEBF0FBE54
:101B5000CDBF7C01962EB22ED32EC42EFC018081E7
:101B60008111EAC08DEF99E00E94141610E4892CCF
:101B70008794882487947B2C7294770C770C30ECB4
:101B800073220B2D069506956D2C6294660C660CDF
:101B900040EC6422D694D6945C2C5294550C550C8F
:101BA00050EC5522C694C694612F8DEF99E00E94A7
:101BB00026168DEF99E00E94A4168111B8C0F70196
:101BC00080818F3F09F4B3C0412F60E0C70180DFFF
:101BD0005C01212F40E050E860E0C70137DE412F73
:101BE00060E0C70175DF9C018115904831F4212F19
:101BF000A50160E0C7012ADE9AC02F3989E33807C2
:101C000029F4F7018281807F828329C02732F1E4A1
:101C10003F07A1F4412F6FEFC7015ADF9C01F70185
:101C20009281907F2036F2E23F0711F4916015C057
:101C3000232B11F0926011C093600FC0F7019281C5
:101C4000907F2732F1E63F0711F4946006C02732F7
:101C5000314711F4956001C09860F7019283F70154
:101C60002281822F8F70883009F461C0312F3F7735
:101C700038293383492D46954F7347294483502F84
:101C8000562955836D2D6529668377817C7F8C2D40
:101C90008370782B7783CE01019620DC84E1FE01EE
:101CA0003196D701189601900D928A95E1F7F701C8
:101CB00082818F70853071F58085807F8560808717
:101CC0006081C701E7DDF701808190E00196AA24D9
:101CD000AA94B12CB5010E94AA2280839085907F9E
:101CE00096609087682FC701D5DDF701808190E06D
:101CF0000196B5010E94AA2280839085907F97600B
:101D00009087682FC701C6DDF701808190E00196BA
:101D1000B5010AC0F7016081C701BCDDF701808110
:101D200090E001966FEF70E00E94AA2280831F5F0F
:101D3000103809F039CF06C0602FC701F6DC602FDC
:101D4000C701A8DD8FEFF7018183808164960FB60C
:101D5000F894DEBF0FBECDBFDF91CF911F910F91E1
:101D6000FF90EF90DF90CF90BF90AF909F908F90BB
:101D70007F906F905F900895CF92DF92EF92FF92E5
:101D80000F931F93CF93DF93EC016A017B01022F26
:101D900010E06881161708F0F2C00F3F29F0802F7D
:101DA0000E949E221913E9C0612FCE01BEDC498535
:101DB0004F7760E0CE018CDE5885252F2F7021F003
:101DC000283008F0D4C074C024E0C2162AE0D2063D
:101DD00021E0E206F10408F045C042E0C41645E8FF
:101DE000D406E104F10408F040C02CE7C21622E456
:101DF000D206E104F104E0F54EE3C41641E2D40654
:101E0000E104F104C0F524EAC21620E1D206E1049F
:101E1000F104A0F542E5C41648E0D406E104F1045B
:101E200080F524E2C21624E0D206E104F10460F554
:101E300044E1C41642E0D406E104F10440F524E193
:101E4000C21621E0D206E104F10420F531E020E0E1
:101E500044E9C416D104E104F10408F430E0632F2E
:101E6000722F1AC06FE070E017C06EE070E014C00F
:101E70006DE070E011C06CE070E00EC06BE070E0EF
:101E80000BC06AE070E008C069E070E005C068E07F
:101E900070E002C062E070E09C012F77387F769599
:101EA000762F662777956795CB01822B932B5FC0A2
:101EB00028E0C21622E4D20621E0E206F10478F519
:101EC00048E5C41642EAD406E104F10458F528EACC
:101ED000C21622E5D206E104F10438F548EFC41633
:101EE0004AE2D406E104F10418F52CE4C21622E01B
:101EF000D206E104F104F8F44CE4C41641E0D4063F
:101F0000E104F104D8F461E040E02CECC216D10405
:101F1000E104F10408F460E0262F342F11C027E01B
:101F200030E00EC026E030E00BC025E030E008C015
:101F300024E030E005C023E030E002C022E030E0E1
:101F40005F70BC016F737E7F513019F05550533074
:101F500030F496E0220F331F9A95E1F705C03695CD
:101F6000322F222737952795C901862B972B298554
:101F70002F77AC0160E0CE0169DC1F5F0ACFDF91F3
:101F8000CF911F910F91FF90EF90DF90CF90089528
:101F9000CF92DF92EF92FF920F931F93CF93DF9335
:101FA000EC016A017B01022F10E06881161708F02E
:101FB000E8C00F3F29F0802F0E949E221913DFC036
:101FC000612FCE01B2DB49854F7760E0CE0180DD25
:101FD000AC018885982F9F7021F0983008F0CAC016
:101FE0006FC024E0C2162AE0D20621E0E206F10426
:101FF00008F045C032E0C31635E8D306E104F10429
:1020000008F040C08CE7C81682E4D806E104F10469
:10201000E0F59EE3C91691E2D906E104F104C0F5AA
:1020200024EAC21620E1D206E104F104A0F532E56B
:10203000C31638E0D306E104F10480F584E2C81643
:1020400084E0D806E104F10460F594E1C91692E059
:10205000D906E104F10440F524E1C21621E0D206DC
:10206000E104F10420F591E080E034E9C316D104E5
:10207000E104F10408F490E0292F382F1AC02FE072
:1020800030E017C02EE030E014C02DE030E011C089
:102090002CE030E00EC02BE030E00BC02AE030E056
:1020A00008C029E030E005C028E030E002C022E0AE
:1020B00030E0477C93E0220F331F9A95E1F758C038
:1020C00098E0C91692E4D90691E0E906F10478F5A2
:1020D00028E5C21622EAD206E104F10458F538EAEE
:1020E000C31632E5D306E104F10438F598EFC916BA
:1020F0009AE2D906E104F10418F52CE4C21622E0B4
:10210000D206E104F104F8F43CE4C31631E0D3064E
:10211000E104F104D8F421E090E03CECC316D104D2
:10212000E104F10408F420E0622F792F11C067E088
:1021300070E00EC066E070E00BC065E070E008C0C3
:1021400064E070E005C063E070E002C062E070E04F
:102150008F709A01813019F08550833010F4277EFA
:1021600001C0277C83E0660F771F8A95E1F7AB01FA
:10217000422B532B29852F7760E0CE0167DB1F5F51
:1021800014CFDF91CF911F910F91FF90EF90DF90CF
:10219000CF9008950F931F93CF93DF93EC01C5DA8F
:1021A00049854F776E856770CE0192DC8C018885FA
:1021B000982F9F702BEF290F233010F0911105C03D
:1021C00093E0169507959A95E1F782958F7082FDB9
:1021D0000DC081FF0BC049854F7760E0CE0178DCF0
:1021E00029852F77AC0160E0CE0130DBC801DF919B
:1021F000CF911F910F910895CF93DF93EC01CADF28
:10220000AA89BB899C010E94042324E630E040E0B7
:1022100050E00E94BE22C901DF91CF910895CF9274
:10222000DF92EF92FF92CF93DF93EC01F62EC8D0AE
:10223000DC0198859F70943041F46F2DCE012CD035
:1022400028EC30E040E050E008C0288939890E943D
:1022500013232AE030E040E050E00E94E0226901D0
:102260007A01888582958F7082FD0DC080FF0BC03A
:1022700049854F7760E0CE012BDC29852F77AC01B3
:1022800060E0CE01E3DAC701B601DF91CF91FF90A4
:10229000EF90DF90CF9008952F923F924F925F92F0
:1022A0006F927F928F929F92AF92BF92CF92DF9266
:1022B000EF92FF920F931F93CF93DF93EC01162FB2
:1022C00034DA88858F708550833090F5612FCE0188
:1022D000A6DF2B013C019A85929596959695937071
:1022E0008B85582F550F550F252F292B982F9295F9
:1022F0009695969593708C85582F550F550F352FC1
:10230000392B982F92959695969593708D8583701D
:10231000880F880F482F492B50E060E472E48FE06B
:1023200090E00E94E022C301B2010E948F2235C0DA
:1023300049854F776E85862F829586958695837021
:102340006F856170660F660F682BCE01C1DB4C890B
:102350005D896E897F891A012B01A82E192F110F13
:10236000110BB92EC12ED12EE12EF12E012F9A0183
:10237000A20160E070E080E090E00E942323E8EE9C
:10238000AE2EF3E0BF2EC12CD12CE12CF12C00E0BD
:1023900010E00E949D23B901CA01DF91CF911F91E6
:1023A0000F91FF90EF90DF90CF90BF90AF909F90F4
:1023B0008F907F906F905F904F903F902F900895F7
:1023C0000F931F93CF93DF93EC01162FAED988851F
:1023D0008F70843059F4612FCE015EDF20E43DE040
:1023E00043E050E00E94E022890114C049854F7704
:1023F0006E856695669566956770CE0169DB8C0182
:1024000088858F708550833028F483E01595079573
:102410008A95E1F7888582958F7082FD0DC080FFD7
:102420000BC049854F7760E0CE0152DB29852F77BD
:10243000AC0160E0CE010ADAC801DF91CF911F91B3
:102440000F910895DF92EF92FF920F931F93CF9316
:10245000DF93EC01D42E10E06770062F0295007F09
:102460006881161728F58FEFD81629F08D2D0E9458
:102470009E2219131BC0612FCE0157D949854F7772
:1024800060E0CE0125DB887F7C0188858F70802B02
:102490008887612FCE01A3D929852F7788858295DA
:1024A0008F70A701482B60E0CE01D0D91F5FD8CF35
:1024B000DF91CF911F910F91FF90EF90DF900895E2
:1024C000CF92DF92EF92FF920F931F93CF93DF9300
:1024D0008C01EB01C42ED12CF8016081D61608F0D6
:1024E0008CC0FFEFCF1629F08C2D0E949E22D912AE
:1024F00082C06D2DC80119D9F80141854F7760E080
:10250000C801E6DAAC01F80180858F7021F08830CF
:1025100008F06BC03EC0C038D105A8F4C034D10566
:10252000A8F4C032D105A8F4C031D105A8F4C83050
:10253000D105A8F4C430D105A8F4C230D105A8F45F
:1025400028E030E014C02FE030E011C02EE030E091
:102550000EC02DE030E00BC02CE030E008C02BE0D6
:1025600030E005C02AE030E002C029E030E0C901D7
:1025700063E0880F991F6A95E1F73695322F22277D
:1025800037952795282B392B4770587F422B532B93
:102590002CC0C115F4E0DF07B8F4C11582E0D807FC
:1025A000A8F4CF3FD10509F098F4C038D10590F4D4
:1025B000C034D10588F4C031D10580F491E0C43035
:1025C000D10568F490E00BC097E009C096E007C021
:1025D00095E005C094E003C093E001C092E0F92EBD
:1025E000FF0CE12C517F4E295F29F80121852F77BF
:1025F00060E0C8012BD9D3946FCFDF91CF911F91A9
:102600000F91FF90EF90DF90CF9008951092FC090A
:1026100081E08093FA091092F90961E084E144D7DE
:1026200061E085E141D7E9EBF0E080818E7F808336
:1026300080818D7F808388E48093B80085E48093D7
:10264000BC0008959B01AC0160E074E284EF90E06F
:102650000E94BE22DA01C9014097A109B109B695CD
:10266000A795979587958093B8000895413208F013
:1026700043C09091FC099111FCCF91E09093FC092B
:102680002093FA092FEF20938F091092D409240F79
:102690002093D3099093FB099091FB09880F892B14
:1026A0008093FB098091F909813061F41092F90956
:1026B0008091FB098093BB008091BC0083FDF8CF23
:1026C00085EC01C085EE8093BC008091FC098130CF
:1026D000E1F38091D409841710F44091D409A5ED59
:1026E000B9E0962FFB018E2F891B841718F48D916A
:1026F0008193F9CF842F089580E008950F9341329C
:1027000008F04AC09091FC099111FCCF32E030935F
:10271000FC090093FA093FEF30938F091092D40916
:102720004093D309562FA5EDB9E0FB013E2F351B91
:10273000341718F431913D93F9CF1092FB09309181
:10274000FB09880F832B8093FB098091F909813065
:1027500061F41092F9098091FB098093BB0080918C
:10276000BC0083FDF8CF85EC01C085EE8093BC00F2
:10277000222321F08091FC098230D1F380918F09CE
:102780008F3F79F080918F09803241F080918F09DD
:10279000803331F094E005C091E003C092E001C0C5
:1027A00093E0892F0F9108954091B109262F30E0D1
:1027B000240F311D21323105DCF42091FC09243035
:1027C000C9F4FC0180E090E0861758F43091B1091B
:1027D0002191DC01AD54B64FA30FB11D2C9301968E
:1027E000F3CF8091B109680F6093B10980E008953B
:1027F00081E0089582E008959093F6098093F509A9
:1028000008959093F8098093F709089585ED8093D2
:10281000BC008091BC0084FDFCCF1092FC0908959F
:1028200085EC8093BC001092FC0908951F920F92D2
:102830000FB60F9211240BB60F922F933F934F9325
:102840005F936F937F938F939F93AF93BF93EF9318
:10285000FF938091B900887F803609F49DC070F5A0
:10286000883209F45CC090F4803109F455C038F422
:10287000882309F4F3C0883009F44EC0F2C08831CF
:1028800009F44DC0803209F45EC0EBC0803409F415
:1028900069C050F4803309F456C0883309F0E1C0B0
:1028A00080938F09BDDFDDC0803509F44FC08835C6
:1028B00009F45DC0883409F0D4C0D2C0883909F465
:1028C000C3C0A8F4883709F467C038F4883609F41F
:1028D00063C0803709F460C0C4C0883809F4B4C04C
:1028E000803909F45FC0803809F0BBC05BC0803B11
:1028F00009F482C038F4803A09F466C0883A09F4D1
:102900007BC0AFC0803C09F4A3C0883C09F4A0C0E0
:10291000883B09F486C0A5C08091FB0910C0909146
:10292000D4098091D309981770F5E091D40981E01A
:102930008E0F8093D409F0E0EB52F64F80818093A4
:10294000BB0085EC82C080938F098AC0E091D409D6
:1029500081E08E0F8093D4098091BB00F0E0EB52B0
:10296000F64F80839091D4098091D3096AC0E09199
:10297000D40981E08E0F8093D4098091BB00F0E0F0
:10298000EB52F64F80838091FA09811169C081E092
:102990008093F90984EA5DC083E08093FC0910927A
:1029A0009009CFCF80919009803208F04DC0E0911E
:1029B000900981E08E0F809390098091BB00F0E038
:1029C000EF56F64F8083BDCF2BDF80919009803288
:1029D00030F4E0919009F0E0EF56F64F10826091EC
:1029E000900970E0E091F509F091F60981E999E02C
:1029F00019951092900935C084E08093FC091092DB
:102A0000B2091092B109E091F709F091F80919950E
:102A10008091B109811105C081E08093B1091092C4
:102A2000B309E091B20981E08E0F8093B209F0E022
:102A3000ED54F64F80818093BB009091B209809154
:102A4000B109981708F47DCF85E88093BC0009C0D0
:102A500085EC8093BC001092FC0903C010928F0992
:102A6000D5DEFF91EF91BF91AF919F918F917F91B3
:102A70006F915F914F913F912F910F900BBE0F90EF
:102A80000FBE0F901F90189580E090E00895089574
:102A90008091310A90E02091320A821B91090895B9
:102AA0009091320A8091310A981750F4E92FF0E0A2
:102AB000ED5CF54F208130E09F5F9093320A02C0B9
:102AC0002FEF3FEFC9010895E091320A8091310A5A
:102AD000E81730F4F0E0ED5CF54F808190E0089568
:102AE0008FEF9FEF08950895CF93DF93EC01E0916E
:102AF000090AF0910A0A3097F1F09091320A809118
:102B0000310A9817C0F090E0292F30E026173707D8
:102B100054F4DE01A20FB31F4C91D901AD5CB54F47
:102B20004C939F5FF1CF1092320A6093310ACB0130
:102B3000DF91CF911994DF91CF910895E0910B0A25
:102B4000F0910C0A309729F010920F0A10920E0A99
:102B500019940895CF92DF92EF92FF920F931F93F3
:102B6000CF93DF937C01CB018A0120910D0A2223B0
:102B700089F0EB016B01C40ED51ECC15DD0561F0AB
:102B80006991D701ED91FC910190F081E02DC70191
:102B90001995F3CF642F08DEC801DF91CF911F9103
:102BA0000F91FF90EF90DF90CF900895CF93DF9338
:102BB0001F92CDB7DEB7698320910D0A2223D1F091
:102BC00020910E0A203240F021E030E0FC013383F6
:102BD000228380E090E014C080910F0AE82FF0E09B
:102BE000E05FF54F998190838F5F80930F0A809308
:102BF0000E0A04C061E0CE010196D6DD81E090E0CE
:102C00000F90DF91CF910895FC011382128288EE1C
:102C100093E0A0E0B0E084839583A683B78385E446
:102C200092E09183808308951092320A1092310AC3
:102C300010920F0A10920E0AE9DC8EE995E1E1DDAF
:102C400084E795E1D9CDCB01BA01FCCC81E080933A
:102C50000D0A6093300A10920F0A10920E0A08951E
:102C60000F93062F21E040910E0A60E17AE08091F7
:102C7000300A44DD10920F0A10920E0A10920D0ACB
:102C80000F9108954F925F926F927F92AF92BF9291
:102C9000CF92EF92FF920F931F93CF93DF935C013C
:102CA000F62ED42F28013901EE2011F1CFDFCE2DE1
:102CB000C43008F0C3E0C150C0F028E0C29FC0019A
:102CC0001124A301920104C0569547953795279585
:102CD0008A95D2F7CA01B901D501ED91FC91019015
:102CE000F081E02DC5011995E6CF60E0C501B8DFA0
:102CF0004D2FD13208F040E22C2D63E37AE08F2D86
:102D0000B5DC1092320A8093310ADF91CF911F9186
:102D10000F91FF90EF90CF90BF90AF907F906F900A
:102D20005F904F900895CF92EF920F931F93C22E12
:102D3000E12C00E010E09801A5DF1F910F91EF90CA
:102D4000CF90089521E0EFCF61E08ACF8DEF99E039
:102D50005BCF5058BB27AA270ED048C139D130F0DD
:102D60003ED120F031F49F3F11F41EF42EC10EF439
:102D7000E095E7FB24C1E92F4AD180F3BA17620737
:102D800073078407950718F071F49EF562C10EF47D
:102D9000E0950B2EBA2FA02D0B01B90190010C016B
:102DA000CA01A0011124FF27591B99F0593F50F483
:102DB000503E68F11A16F040A22F232F342F4427DB
:102DC000585FF3CF469537952795A795F0405395D3
:102DD000C9F77EF41F16BA0B620B730B840BBAF0A3
:102DE0009150A1F0FF0FBB1F661F771F881FC2F70E
:102DF0000EC0BA0F621F731F841F48F48795779522
:102E00006795B795F7959E3F08F0B3CF9395880FD8
:102E100008F09927EE0F9795879508950CD0E6C096
:102E2000DED040F0D5D030F021F45F3F19F0C7C0BC
:102E3000511110C1CAC0EBD098F39923C9F355239F
:102E4000B1F3951B550BBB27AA276217730784079D
:102E500038F09F5F5F4F220F331F441FAA1FA9F353
:102E600033D00E2E3AF0E0E830D091505040E69545
:102E7000001CCAF729D0FE2F27D0660F771F881FA6
:102E8000BB1F261737074807AB07B0E809F0BB0B95
:102E9000802DBF01FF2793585F4F2AF09E3F5105B9
:102EA00068F08DC0D7C05F3FECF3983EDCF38695A9
:102EB00077956795B795F7959F5FC9F7880F911D2F
:102EC0009695879597F90895E1E0660F771F881F1B
:102ED000BB1F621773078407BA0720F0621B730BCE
:102EE000840BBA0BEE1F88F7E095089598D088F010
:102EF0009F5790F0B92F9927B751A0F0D1F0660FE6
:102F0000771F881F991F1AF0BA95C9F712C0B13000
:102F100081F09FD0B1E008959CC0672F782F88275B
:102F2000B85F39F0B93FCCF3869577956795B3953F
:102F3000D9F73EF490958095709561957F4F8F4FAE
:102F40009F4F0895E89409C097FB3EF490958095B3
:102F5000709561957F4F8F4F9F4F9923A9F0F92F5F
:102F600096E9BB279395F695879577956795B795DD
:102F7000F111F8CFFAF4BB0F11F460FF1BC06F5FC3
:102F80007F4F8F4F9F4F16C0882311F096E911C0D5
:102F9000772321F09EE8872F762F05C0662371F0F6
:102FA00096E8862F70E060E02AF09A95660F771F0A
:102FB000881FDAF7880F9695879597F9089597F9FE
:102FC0009F6780E870E060E008959FEF80EC0895CF
:102FD00000240A94161617061806090608950024F8
:102FE0000A9412161306140605060895092E039472
:102FF000000C11F4882352F0BB0F40F4BF2B11F4E6
:1030000060FF04C06F5F7F4F8F4F9F4F089557FD44
:103010009058440F551F59F05F3F71F04795880F46
:1030200097FB991F61F09F3F79F0879508951216DD
:1030300013061406551FF2CF4695F1DF08C0161689
:1030400017061806991FF1CF86957105610508943A
:103050000895E894BB2766277727CB0197F9089551
:103060000BD0C4CFB5DF28F0BADF18F0952309F0F4
:10307000A6CFABCF1124EECFCADFA0F3959FD1F33B
:10308000950F50E0551F629FF001729FBB27F00D16
:10309000B11D639FAA27F00DB11DAA1F649F66276B
:1030A000B00DA11D661F829F2227B00DA11D621FBA
:1030B000739FB00DA11D621F839FA00D611D221F74
:1030C000749F3327A00D611D231F849F600D211D58
:1030D000822F762F6A2F11249F5750408AF0E1F0FB
:1030E00088234AF0EE0FFF1FBB1F661F771F881F44
:1030F00091505040A9F79E3F510570F060CFAACF84
:103100005F3FECF3983EDCF3869577956795B7952E
:10311000F795E7959F5FC1F7FE2B880F911D969558
:10312000879597F908950895CBD0FDDF0E941A097D
:10313000C0E0D0E00E942E0A2097E1F30E94000038
:10314000F9CF1F920F920FB60F9211242F933F9336
:103150008F939F93AF93BF938091540A9091550A98
:10316000A091560AB091570A3091530A23E0230FD9
:103170002D3720F40196A11DB11D05C026E8230FAF
:103180000296A11DB11D2093530A8093540A909377
:10319000550AA093560AB093570A8091580A909105
:1031A000590AA0915A0AB0915B0A0196A11DB11D5E
:1031B0008093580A9093590AA0935A0AB0935B0AD5
:1031C000BF91AF919F918F913F912F910F900FBE23
:1031D0000F901F9018952FB7F8946091540A709132
:1031E000550A8091560A9091570A2FBF08953FB70C
:1031F000F8948091580A9091590AA0915A0AB09176
:103200005B0A26B5A89B05C02F3F19F00196A11DAA
:10321000B11D3FBFBA2FA92F982F8827820F911D6C
:10322000A11DB11DBC01CD0142E0660F771F881FB3
:10323000991F4A95D1F708958F929F92AF92BF92AE
:10324000CF92DF92EF92FF926B017C01D0DF4B01B6
:103250005C01C114D104E104F104F1F06ED7C7DFC1
:10326000DC01CB0188199909AA09BB09883E934062
:10327000A105B10570F321E0C21AD108E108F108F7
:1032800088EE880E83E0981EA11CB11CC114D104E5
:10329000E104F10421F7DDCFFF90EF90DF90CF90B4
:1032A000BF90AF909F908F9008958230910538F035
:1032B000880F991F880F991F05970197F1F70895B7
:1032C000789484B5826084BD84B5816084BD85B501
:1032D000826085BD85B5816085BDEEE6F0E08081C8
:1032E00081608083E1E8F0E01082808182608083E9
:1032F000808181608083E0E8F0E08081816080836C
:10330000E1EBF0E0808184608083E0EBF0E080819D
:1033100081608083E1E9F0E0808182608083808148
:1033200081608083E0E9F0E0808181608083E1EA70
:10333000F0E0808182608083808181608083E0EA28
:10334000F0E0808181608083E1E2F1E08081826051
:103350008083808181608083E0E2F1E08081816010
:103360008083EAE7F0E080818460808380818260EE
:1033700080838081816080838081806880831092D7
:10338000C100089590E0FC013197E231F10508F0A9
:103390004EC08827EE58FF4F8F4F0C94FC2280912F
:1033A00080008F7703C0809180008F7D80938000A4
:1033B000089580918000877FF9CF84B58F7702C010
:1033C00084B58F7D84BD08958091B0008F7703C050
:1033D0008091B0008F7D8093B0000895809190001F
:1033E0008F7707C0809190008F7D03C080919000FF
:1033F000877F8093900008958091A0008F7707C009
:103400008091A0008F7D03C08091A000877F809372
:10341000A0000895809120018F7707C0809120013E
:103420008F7D03C080912001877F809320010895C4
:10343000CF93DF9390E0FC01E656FD4F2491FC0111
:10344000E052FD4F8491882361F190E0880F991F2D
:10345000FC01E05CFC4FC591D491FC01EA5DFC4F9E
:10346000A591B491611109C09FB7F8948881209506
:1034700082238883EC912E230BC0623061F49FB7C6
:10348000F8948881322F309583238883EC912E2BFA
:103490002C939FBF06C08FB7F894E8812E2B28830A
:1034A0008FBFDF91CF9108951F93CF93DF93282F84
:1034B00030E0F901EC5AFD4F8491F901E656FD4FD9
:1034C000D491F901E052FD4FC491CC23B9F0162FED
:1034D000811158DFEC2FF0E0EE0FFF1FEA5DFC4F8B
:1034E000A591B4919FB7F894111104C08C91D09517
:1034F000D82302C0EC91DE2BDC939FBFDF91CF91EC
:103500001F910895CF93DF93EC0160E08E81CCDFB3
:1035100081E090E0CADE61E08E81C6DF81E090E06C
:10352000C4DE60E08E81C0DF84E690E0DF91CF9161
:10353000BCCECF92DF92EF92FF920F931F93CF9367
:10354000DF936C017C0187E0E80EF11CC0E0D0E065
:10355000062F10E0B8010C2E02C0759567950A94ED
:10356000E2F76170F70181917F019EDF2196C430FF
:10357000D10581F7C601DF91CF911F910F91FF9087
:10358000EF90DF90CF90BECFCF92DF92EF92FF927D
:103590000F931F93CF93DF936C017C0187E0E80EBC
:1035A000F11CC0E0D0E0062F10E0B8010C2E02C0E4
:1035B000759567950A94E2F76170F70181917F0133
:1035C00073DF2196C830D10581F7C601DF91CF9115
:1035D0001F910F91FF90EF90DF90CF9093CF1F93AB
:1035E000CF93DF93EC01162F642F8C815DDF8D81EB
:1035F0008F3F11F060E058DF8F85612F84FF05C099
:10360000CE01DF91CF911F91BFCF70E084E075951F
:1036100067958A95E1F7CE018CDF612FCE01DF91AE
:10362000CF911F9186CF40E0DACF61E0FCDF80EDE3
:1036300097E03BCEFC01443008F043E08389481713
:1036400010F04FEF480FDF01A40FB11D54969C916D
:10365000690F6068CF01E7CFFC016089262F2460E5
:10366000208B6C60E0CFEF92FF920F931F93CF936C
:10367000DF93EC01423018F08F8588608F874B8B89
:103680001C8A80E48D8B6E8B70E0605C7F4F6F8B4B
:10369000222329F0413019F48F8584608F8761E0FF
:1036A0008C81C6DE8D818F3F11F061E0C1DE61E06B
:1036B0008E81BEDE7E0187E0E80EF11C00E010E0A6
:1036C0008F8584FD03C084E090E002C088E090E034
:1036D0000817190744F461E0F70181917F01A8DE22
:1036E0000F5F1F4FEDCF80E593ECDFDD60E08C8155
:1036F000DBDE60E08E81D8DE8D818F3F11F060E0EF
:10370000D3DE6F8564FD16C063E0CE0112DF84E96D
:1037100091E1CBDD63E0CE010CDF84E991E1C5DD11
:1037200063E0CE0106DF86E990E0BFDD62E0CE0116
:1037300000DF11C06062CE0176DF84E991E1B5DD82
:103740006F856062CE016FDF86E990E0AEDD6F8548
:103750006062CE0168DF6F856062CE0164DF84E065
:10376000888BCE0179DFCE0160DF82E0898B66E055
:10377000CE01DF91CF911F910F91FF90EF9053CF2A
:103780008F92AF92CF92EF920F93CF93DF93CDB7FB
:10379000DEB7FC013B859C858D8513821282A7E5EF
:1037A000B2E0B183A0836483458326830783E086E8
:1037B000C186A286838634879587868780E187873E
:1037C00020E041E060E1CF01DF91CF910F91EF90D8
:1037D000CF90AF908F9047CFEF92FF920F931F93B0
:1037E000CF93DF938C017A01677088E0689FB00106
:1037F00011246064C80117DFE701A8E0EA0EF11C9C
:103800006991D801ED91FC910190F081E02DC80102
:103810001995CE15DF05A1F7DF91CF911F910F917B
:10382000FF90EF90089541E0DADE81E090E00895A6
:103830000895693060F4FC01E60FF11DE60FF11DFB
:103840005683458321E0FC0126A381E0089580E0B2
:103850000895FC01643028F464834383228381E06B
:10386000089580E008956150653050F4FC01E60F42
:10387000F11D81A18E3321F481E481A381E00895BB
:1038800080E00895AF92BF92CF92DF92EF92FF92C5
:103890000F931F93CF93DF931F921F92CDB7DEB785
:1038A000FC018B01EDB6FEB650E0DC01A40FB51FA4
:1038B00091968C91813409F4D9C008F050C08032BF
:1038C00009F4A2C040F5893009F489C090F4813030
:1038D00009F4B2C0883009F0A7C1440F551FE40FA6
:1038E000F51F0788F08DE02D6081062E000C770B08
:1038F00097C1803109F47EC0813109F095C1440F30
:10390000551FE40FF51F0788F08DE02D6081718150
:103910004AE050E03EC18C3309F458C0A0F4813233
:1039200009F47EC0823309F07FC1258130E0440F65
:10393000551FE40FF51F0788F08DE02D4081518160
:10394000628173815DC18D33A9F18E3309F06CC141
:10395000440F551FE40FF51F6789708D34C0893DF2
:1039600009F409C190F4803D09F4D6C038F48634D6
:1039700009F46BC0893C09F446C156C1813D09F484
:10398000DAC0883D09F4E8C04FC1803F09F429C17D
:1039900038F4883E09F400C1893E09F410C144C1DD
:1039A0008B3F09F49DC08C3F09F49AC08A3F09F00F
:1039B0003BC1A3C0440F551FE40FF51F0788F08DCE
:1039C000E02D60817181C801F8D32EC1440F551FCD
:1039D000E40FF51F0788F08DE02D60819AC0440F39
:1039E000551FE40FF51F0788F08DE02D4AE050E0E9
:1039F0006081AFC0440F551FE40FF51F0788F08D9D
:103A0000E02D608171810CC1440F551FE40FF51F3B
:103A10000788F08DE02D4081518162817381CAC099
:103A2000440F551FE40FF51F0788F08DE02D4081EE
:103A3000518162817381D0C0440F551FE40FF51F7F
:103A40000788F08DE02D6081EAC0440F551FE40F18
:103A5000F51FA789B08DFB0180819181FC01208138
:103A600031816C91C801F9011995DEC0CDB6DEB681
:103A7000440F551FE40FF51FA788B08CC5012BD745
:103A80009A83898389819A812DB73EB7281B390B88
:103A90000FB6F8943EBF0FBE2DBF6DB77EB76F5FF8
:103AA0007F4F20E0822F90E049815A81841795074B
:103AB00054F4F501E80FF91FE491DB01A80FB91FD9
:103AC000EC932F5FEFCFE981FA81E60FF71F1082A9
:103AD000C80173D30FB6F894DEBE0FBECDBEA4C02E
:103AE000440F551FE40FF51F0788F08DE02D309728
:103AF00009F49AC01995BC0166CF440F551FE40F15
:103B0000F51F0788F08DE02D309709F48DC01995C9
:103B1000682FC80153D388C0440F551FE40FF51F09
:103B20000788F08DE02D309709F47EC01995682F35
:103B3000880F770B75C0440F551FE40FF51F0788DA
:103B4000F08DE02D309709F46FC019954AE050E0F0
:103B5000682FC8018DD368C0440F551FE40FF51FAF
:103B60000788F08DE02D309709F45EC019954AE082
:103B700050E0BC0157C0440F551FE40FF51F0788E4
:103B8000F08DE02D309709F44FC019954AE050E0D0
:103B9000BC01C80173D348C09A01220F331FE20F42
:103BA000F31F0788F08DE02D309709F43DC019957B
:103BB000AB01BC012AE030E0C80165D335C09A01F1
:103BC000220F331FE20FF31F0788F08DE02D30978F
:103BD00059F11995AB01BC012AE030E0C8013CD392
:103BE00023C09A01220F331FE20FF31F0788F08DC5
:103BF000E02D3097C9F01995AB01BC0122E030E00F
:103C0000C8015CD411C09A01220F331FE20FF31FC9
:103C10000788F08DE02D309739F01995682F70E006
:103C20004AE050E0C80174D30FB6F894FEBE0FBE50
:103C3000EDBE0F900F90DF91CF911F910F91FF90EC
:103C4000EF90DF90CF90BF90AF900895EF92FF92EA
:103C50000F931F93CF93DF938C01EB01E42EDC01D4
:103C60004C9111966C91CE01E5DCF12C4F2DBE01EB
:103C7000C80108DEF394B5E0FB12F8CFEE2099F10D
:103C8000F8018481823059F08330A9F0E881F9810C
:103C90008130E9F081E0D80114968C9318C06181DD
:103CA00061504081CE01C6DCE881F9810190F0814C
:103CB000E02D6EE010C0F80142816381CE01BADCD4
:103CC000E881F9810190F081E02D6DE004C0019060
:103CD000F081E02D6FE0CE01DF91CF911F910F9128
:103CE000FF90EF901994DF91CF911F910F91FF906A
:103CF000EF900895860F911D860F911DDC0115969A
:103D0000ED91FC911697309719F0199581E008957F
:103D100080E00895FC0171836083168E4150478FC7
:103D200008950F931F93CF93DF93EC018B0180DDF8
:103D30008E8D8E3058F4FE01E80FF11DE80FF11D55
:103D4000138302838F5F8E8F81E001C080E0DF915B
:103D5000CF911F910F910895FC01278DE20FF11D66
:103D6000E20FF11D8281938108950F931F93CF93EA
:103D7000DF938C01D62F5CDDD33079F0C0E0F80101
:103D8000868DC81760F4EC0FF11DEC0FF11D6D2F3F
:103D900082819381E6D0CF5FF2CF80E001C081E0E5
:103DA000DF91CF911F910F910895FC01623031F0A6
:103DB000633051F0613051F46FE001C06EE08081FA
:103DC00091810ADD81E008956DE0F9CF80E00895EA
:103DD000FC0160817181878DE80FF11DE80FF11DF5
:103DE00082819381E3C0CF93DF93EC018881998135
:103DF0001CDCCE01DF91CF91EBCFEF92FF920F93BE
:103E00001F93CF938C017B01C0E0F801868DC8170A
:103E1000B8F48081918109DCF801EC0FF11DEC0F01
:103E2000F11D828193818E159F0541F4F801C78FA2
:103E3000C801D9DFC801D7DF81E003C0CF5FE5CF7C
:103E400080E0CF911F910F91FF90EF9008951F9305
:103E5000CF93DF93EC01162F88819981E6DB8F8D5C
:103E6000FE01E80FF11DE80FF11D612F82819381A2
:103E7000F2D0CE01DF91CF911F91B5CF1F93CF9399
:103E8000DF93EC018F8DFE01E80FF11DE80FF11DAE
:103E9000828193810AD1182FCE01A5DF812FDF9176
:103EA000CF911F9108950F931F93CF93DF93EC0150
:103EB0008B01BEDC888D8C3078F4FE01E80FF11D9B
:103EC000E80FF11D118300838F5F888F998D9F5FAD
:103ED000998F8A8F81E001C080E0DF91CF911F919F
:103EE0000F910895FC01108E118E138EDCCF0F936D
:103EF0001F93CF93DF93EC018A01F4DFB801CE0169
:103F0000DF91CF911F910F91CECF0F931F93CF933E
:103F1000DF93EC018901EBDFB801CE01DF91CF9196
:103F20001F910F91C0CF0F931F93CF93DF93EC019D
:103F3000ECDFB801CE01DF91CF911F910F91B3CF8C
:103F4000EF92FF920F931F93CF93DF93EC01EBDF80
:103F5000B701CE01DF91CF911F910F91FF90EF90AC
:103F6000A2CF0F931F93CF93DF938C01D62F60DCEA
:103F7000D33089F0C0E0F801808DC81770F4EC0FE1
:103F8000F11DEC0FF11D20E040E06D2F808191814B
:103F900060DCCF5FF0CF80E001C081E0DF91CF91A6
:103FA0001F910F910895FC01628F0895BF92CF92E7
:103FB000DF92EF92FF920F931F93CF93DF938C01C9
:103FC0006B01FC01B28C808DBB2011F08B1508F4C5
:103FD000B82EF801C18DEB2CF12CCB1568F0CF5F1A
:103FE000CB19A7014C0F511D282F30E0241735079E
:103FF00024F4C82FCB1901C0C0E0DC2FEC0EF11C5B
:104000002D2F2C1B8D2F90E08E159F05D4F441E0B1
:10401000F801318D3D1340E0F801308D880F991F74
:10402000B31630F4E80FF91F0190F081E02D2083E2
:10403000F801E80FF91FB6018081918107DEDF5F8B
:10404000DFCFDF91CF911F910F91FF90EF90DF9025
:10405000CF90BF9008951F93CF93DF93EC01162F5D
:10406000E7DB898D112351F0988D891728F48F5F34
:10407000898F98130AC015C0198E07C0811103C01B
:10408000888D898F0EC08150898F898DFE01E80F40
:10409000F11DE80FF11D0190F081E02D86A188232C
:1040A00001F3DF91CF911F910895FC01818D908DD7
:1040B000891739F0E80FF11DE80FF11D808191811A
:1040C00019CE80E008958EE3089589E0089581E295
:1040D000089582E30895CF93CFB7F89480915F0A53
:1040E000811123C0E5E1F3E08491EFECF2E09491DB
:1040F000E82FF0E0EE0FFF1FE05CFC4FA591B491BC
:10410000EC91E92319F461E085E3CED961E085E320
:104110008FD98CB580618CBD8CB580648CBD61E01D
:1041200084E386D961E083E383D980915F0A8F5F5E
:1041300080935F0ACFBFCF9108950895CF92DF9209
:10414000EF92FF920F931F93CF93DF936C017A014D
:104150008B01C0E0D0E0CE15DF0581F0D8016D9174
:104160008D01D601ED91FC910190F081E02DC60109
:104170001995892B11F02196EECF7E01C701DF91B1
:10418000CF911F910F91FF90EF90DF90CF90089506
:104190006115710579F0FB0101900020E9F7319775
:1041A000AF01461B570BDC01ED91FC910280F381BE
:1041B000E02D199480E090E00895EACFDC01ED91C4
:1041C000FC910190F081E02D19948F929F92AF9213
:1041D000BF92EF92FF920F931F93CF93DF93CDB7D0
:1041E000DEB7A1970FB6F894DEBF0FBECDBF7C013E
:1041F000FA01CB0119A2223008F42AE08E010F5DEA
:104200001F4F822E912CA12CB12CBF01A50194012E
:10421000B5D1F901CA01015011096A3010F4605D8D
:1042200001C0695CD8016C93232B242B252B69F7E3
:10423000B801C701ADDFA1960FB6F894DEBF0FBE7F
:10424000CDBFDF91CF911F910F91FF90EF90BF9065
:10425000AF909F908F9008952115310541F4DC01B6
:10426000ED91FC910190F081E02D642F1994ADCF78
:104270009A01462F50E060E070E0EECF9A01AB016A
:1042800060E070E0E9CFCF92DF92EF92FF920F9360
:104290001F93CF93DF932115310581F4DC01ED915C
:1042A000FC910190F081E02D642FDF91CF911F915F
:1042B0000F91FF90EF90DF90CF9019942A30310545
:1042C000F1F477FF1BC06A017B01EC016DE276DF40
:1042D0008C0144275527BA014C195D096E097F09E5
:1042E0002AE0CE0172DF800F911FDF91CF911F91E5
:1042F0000F91FF90EF90DF90CF9008952AE0DF912B
:10430000CF911F910F91FF90EF90DF90CF905DCFF5
:104310009A01AB01770F660B770BB5CF7F928F9227
:104320009F92AF92BF92CF92DF92EF92FF920F9344
:104330001F93CF93DF938C016A017B01722E9A0148
:10434000AB01C701B601E7D0882319F062E672E03D
:1043500024C046015701E894B7F82FEF3FEF4FE72D
:104360005FE7C501B401D7D081110CC02FEF3FEF3B
:104370004FE75FE7C501B401A2D018161CF466E64A
:1043800072E00BC02FEF3FEF4FE75FE4C701B601CC
:10439000BED018168CF46AE672E0C801DF91CF91A6
:1043A0001F910F91FF90EF90DF90CF90BF90AF9053
:1043B0009F908F907F90ECCE2FEF3FEF4FE75FEC19
:1043C000C701B6017CD087FDE6CF20E030E0A9012F
:1043D000C701B60174D087FF09C06DE2C801EEDEE7
:1043E000EC01F7FAF094F7F8F09402C0C0E0D0E0E6
:1043F000B12C60E070E080E09FE37B1441F020E0AE
:1044000030E040E251E40E940E17B394F6CFA701CA
:1044100096010E94AA166B017C010E9476174B013F
:104420005C012AE0AB01BC01C801CFDEC80FD91F77
:104430007720A9F1C501B4010E94A2179B01AC012C
:10444000C701B6010E94A9166B017C016EE2C8018A
:10445000B5DEC80FD91F20E030E040E251E4C701CB
:10446000B6010E9430184B015C010E9476176B0167
:104470007C014AE050E0C80101DFC80FD91FB60136
:1044800080E090E00E94A2179B01AC01C501B4013D
:104490000E94A9166B017C017A947110DCCFCE01C9
:1044A000DF91CF911F910F91FF90EF90DF90CF9010
:1044B000BF90AF909F908F907F9008952FCF03D0A3
:1044C00008F481E00895990F0008550FAA0BE0E861
:1044D000FEEF16161706E807F907C0F012161306C6
:1044E000E407F50798F0621B730B840B950B39F406
:1044F0000A2661F0232B242B252B21F408950A266C
:1045000009F4A140A6958FEF811D811D0895DBDF81
:1045100008F48FEF0895D7DF880B990B0895DB011E
:104520008F939F9386D0BF91AF91A29F800D911DD5
:10453000A39F900DB29F900D11240895991B79E0CF
:1045400004C0991F961708F0961B881F7A95C9F723
:1045500080950895AA1BBB1B51E107C0AA1FBB1F72
:10456000A617B70710F0A61BB70B881F991F5A95FF
:10457000A9F780959095BC01CD010895A1E21A2E6E
:10458000AA1BBB1BFD010DC0AA1FBB1FEE1FFF1FF7
:10459000A217B307E407F50720F0A21BB30BE40B47
:1045A000F50B661F771F881F991F1A9469F760958E
:1045B0007095809590959B01AC01BD01CF01089548
:1045C000052E97FB16F400940FD057FD05D0D6DFCB
:1045D00007FC02D046F408C05095409530952195CF
:1045E0003F4F4F4F5F4F089590958095709561951F
:1045F0007F4F8F4F9F4F0895EE0FFF1F881F8BBF78
:104600000790F691E02D1994A29FB001B39FC001CD
:10461000A39F700D811D1124911DB29F700D811DEE
:104620001124911D0895F0DFB7FF0895821B930BAD
:104630000895EADFA59F900DB49F900DA49F800D73
:10464000911D11240895DF93CF931F930F939A9D8B
:10465000F02D219FF00D8B9DF00D8A9DE02DF10D29
:10466000039FF00D029FE00DF11D4E9DE00DF11D29
:104670005E9DF00D4F9DF00D7F936F93BF92AF92B3
:104680005F934F93D501C0DF8B01AC01D701BCDF35
:10469000EB01E80FF91FD6011FD02F913F91D601F2
:1046A000B3DFC60FD71FE81FF91FAF91BF9114D01A
:1046B0002F913F91A9DFC60FD71FE81FF91FD60121
:1046C000A3DFE60FF71F9801BE01CF0111240F9160
:1046D0001F91CF91DF91089597DF460F571FC81F95
:1046E000D91F08F431960895E894DF93CF93FC0125
:1046F000DB018ADF7F936F93E9019A01AC01BF93DD
:10470000AF933F932F93DF017FDF26F46C1B7D0B6C
:10471000820B930B9E01EB01FC01DEDFAF91BF9199
:104720002F913F91D9DFBE01CF01F9012F913F9128
:10473000CF91DF910895689401C0E894F92FF12B8F
:104740000AF027C0A0E0B0E0E7EAF3E293C0092E48
:1047500005941AF479D0112392F4F0E80F26FFEFB4
:10476000E094F09400951095B094C094D094A194E6
:10477000BF0ACF0ADF0AEF0AFF0A0F0B1F0B13D085
:1047800007FC62D0CDB7DEB7ECE090C0689401C002
:10479000E8948F929F92CF93DF9305D0DF91CF91D2
:1047A0009F908F90089588249924F401E401B0E447
:1047B0009F93AA279A158B049C04ED05FE05CF054F
:1047C000D007A10798F4AD2FDC2FCF2FFE2FE92DB6
:1047D000982C892E982F872F762F652F542F432FB3
:1047E000322F2227B85031F7BF9127C01B2EBF911F
:1047F000BB27220F331F441F551F661F771F881FBB
:10480000991F881C991CEE1FFF1FCC1FDD1FAA1FBC
:10481000BB1F8A149B04EC05FD05CE05DF05A00730
:10482000B10748F08A189B08EC09FD09CE09DF0999
:10483000A00BB10B21601A94E1F62EF49401AF01A4
:10484000BE01CD01000C08956095709580959095FE
:1048500030954095509521953F4F4F4F5F4F6F4F8B
:104860007F4F8F4F9F4F08952F923F924F925F92AD
:104870006F927F928F929F92AF92BF92CF92DF9270
:10488000EF92FF920F931F93CF93DF93CDB7DEB7D5
:10489000CA1BDB0B0FB6F894DEBF0FBECDBF199459
:1048A0002A88398848885F846E847D848C849B84C0
:1048B000AA84B984C884DF80EE80FD800C811B81CE
:1048C000AA81B981CE0FD11D0FB6F894DEBF0FBEFD
:1048D000CDBFED010895FC0105900020E9F780951A
:1048E00090958E0F9F1F0895F999FECF92BD81BDBF
:1048F000F89A992780B50895262FF999FECF1FBA07
:1049000092BD81BD20BD0FB6F894FA9AF99A0FBEF8
:104910000196089511E0C1EBD1E000E005C0802FC1
:10492000FE016ADE2196011DC23BD10780E0080727
:06493000B1F7F894FFCF7F
:10493600080C0E0F0E0C08001F0E040000000000ED
:104946000000000000040E1F00907845F4010000EE
:104956000302010301A08601000414252423222159
:10496600200D0C0908076D56007541004B203D20AF
:104976000000000000D615AA1544157315481550F9
:1049860015641500000000131C9E20441547150DE4
:0E4996000A006E616E00696E66006F76660044
:00000001FF
