:10000000ADC10000DCC10000DAC10000D8C10000B1
:10001000D6C10000D4C10000D2C10000D0C1000090
:10002000CEC10000CCC10000CAC10000C8C10000A0
:10003000C6C10000C4C10000C2C10000C0C10000B0
:10004000BEC10000BCC10000BAC10000B8C10000C0
:10005000B6C10000B4C10000B2C100000C94841607
:10006000AEC10000ACC10000AAC10000A8C10000E0
:10007000A6C10000A4C10000A2C10000A0C10000F0
:100080009EC100009CC100009AC1000098C1000000
:1000900096C1000094C1000092C100000C94F911B7
:1000A0008EC100008CC100008AC1000088C1000020
:1000B00086C1000084C1000082C1000080C1000030
:1000C0007EC100007CC100007AC1000078C1000040
:1000D00076C1000074C1000072C1000070C1000050
:1000E0006EC10000C017C317B217B617BC17FA17B6
:1000F000C717CB17D117D517D917DF17E317E7178E
:10010000FA17ED17F117F5174558495400493220F1
:1001100042757320766F6C74616765203A00437591
:100120007272656E74206F6E204932203A2000434F
:10013000757272656E742072656164696E677300B2
:1001400045584954005632203D20005631203D206C
:100150000045786974004E6F7468696E6720796530
:100160007420736F727279203A28004578697400A0
:1001700043616C6962726174696F6E20446F6E6571
:1001800000436C69636B2068657265207768656EF3
:1001900020726561647900536574203056206F6E5B
:1001A00020563100436C69636B2068657265207767
:1001B00068656E207265616479005365742032341D
:1001C00056206F6E20563100333A20524541444943
:1001D0004E475300323A20434F4E46492041444354
:1001E00000313A2043414C49422041444300202001
:1001F000204D41494E204D454E552020200031359F
:100200003A35363A3133004275696C64206F6E209E
:100210003A004144432043414C4942524154494FE2
:100220004E0020202020544553542050524F475216
:10023000414D0000000A0B02090C0D0E08070304D3
:1002400001000000000000000000000000000000AD
:10025000000000000000000000000000000000128C
:10026000111000000000000000000000000000006D
:10027000000000000000000000010210202008081B
:1002800010204010204080020102010804020101F8
:1002900002040810204080804020100804020180E1
:1002A0000402018040201008040201080402010138
:1002B000020408102040800102040810204080053C
:1002C000050505070508080808020202020A0A08CF
:1002D00008040404040101010101010101030303F5
:1002E0000303030303040707070C0C0C0C0C0C0C92
:1002F0000C0202020206060606060606060B0B0B99
:100300000B0B0B0B0B000020002300260029002CF8
:10031000002F003200000100000301060109010066
:10032000002200250028002B002E0031003400029E
:10033000010000050108010B010000210024002735
:10034000002A002D003000330001010000040107E5
:10035000010A010068050F0889144B0811241FBE0B
:10036000CFEFD1E2DEBFCDBF00E00CBF12E0A0E0D6
:10037000B2E0EAE9F4E400E00BBF02C007900D929E
:10038000AC34B107D9F728E0ACE4B2E001C01D926B
:10039000AB30B207E1F711E0CDEAD1E000E006C0F2
:1003A00021970109802FFE010E94AE20CA3AD10791
:1003B00080E00807A9F70E9477160C943C2220CE13
:1003C0000F93FC0180E092E1AAE7B0E030E048172B
:1003D00059076A077B0740F4B695A79597958795C7
:1003E0003F5F3630A1F737E091E09327222311F0E9
:1003F00020E501C020E70C70892F8695082B022B81
:100400000083917091830F91089520910A0822230F
:1004100099F04FB7F89420910A08213059F42DB380
:10042000209308083DB320910908209523232DBB74
:100430004FBF02C0409308088CBD9DBD08958EBD7E
:1004400000000DB407FEFDCF8EB5089580910A0817
:10045000882361F09FB7F89420910A0880910808DA
:10046000213019F48DBB9FBF08958FBF0895089563
:100470000895FF920F931F93CF93DF931F921F92C4
:10048000CDB7DEB7F62E142F409106025091070229
:10049000609108027091090200E021E0CE0101960E
:1004A0008FDF89819A81B1DF809105024FD18F2D35
:1004B0008065C5DF80E0C3DF812FC1DF809104024A
:1004C00045D1C4DF0F900F90DF91CF911F910F9115
:1004D000FF9008950F931F93CF93DF931F921F9266
:1004E000CDB7DEB7162F40910602509107026091FA
:1004F00008027091090200E021E0CE01019660DF60
:1005000089819A8182DFF894809105021FD1812F21
:10051000806195DF80E093DF84E190E00E943817EE
:1005200080E08DDF182F7894809104020FD18EDF48
:10053000812F0F900F90DF91CF911F910F91089510
:10054000EF92FF920F931F93CF93DF9300D01F92F0
:10055000CDB7DEB7162F4091060250910702609189
:1005600008027091090200E021E0CE01019628DF27
:1005700089819A814ADFF89480910502E7D0812F22
:1005800080615DDF82E05BDF84E190E00E943817EC
:100590008E010F5F1F4F7E0184E0E80EF11C80E0AA
:1005A0004EDFF80181938F01EE15FF05C1F77894B6
:1005B00080910402CBD04ADF69817A818B819C8152
:1005C0000F900F900F900F90DF91CF911F910F918F
:1005D000FF90EF900895462F4295407F486061E07C
:1005E00048CF8F929F92AF92BF92CF92DF92EF92BD
:1005F000FF92CF93DF93EC01B62EF8940E94CE16B3
:100600000E94CE166B017C016B2DCE01E4DF62E00F
:10061000CE0160DFB82E0E94CE16B7FEF8CFDC0107
:10062000CB018C199D09AE09BF09C397A105B1057E
:1006300070F761E0CE0184DF6B017C016AE0CE01DE
:100640007FDF4B015C01C701B6010E9485156B017C
:100650007C01C501B4010E9485159B01AC01C70155
:10066000B6010E94F11420E030E84BEB56E40E9402
:10067000131678940E945915DF91CF91FF90EF9057
:10068000DF90CF90BF90AF909F908F900895249A65
:10069000662319F02C9A44E502C02C9844E462E0E9
:1006A000E8CE1F93CF93DF93EC01162F62E012DFA9
:1006B000482F112311F0446001C04B7F62E0CE014E
:1006C000DF91CF911F91D5CECF93DF93EC01F894BA
:1006D00060E0E7DF60E0CE01DADF61E0CE017BDFE2
:1006E00082EFADDE6AE070E080E090E00E94FF16ED
:1006F00061E0CE0176DF6881CE01C9DF61E0CE0125
:10070000D0DF7894DF91CF910895CF93DF93EC0100
:10071000F89460E0C6DF60E0CE01B9DF61E0CE01B1
:100720005ADF81EF8CDE6AE070E080E090E00E94AA
:10073000FF1661E0CE0155DF6881CE01A8DF61E0E0
:10074000CE01AFDF7894DF91CF91089590910101B0
:100750009F6090930101909102019E7F909302010E
:1007600090910A01916090930A018130A9F058F0AC
:10077000823091F580910201877F80930201809100
:10078000020184601CC080910201877F8093020176
:10079000809102018B7F13C0809102018860809359
:1007A0000201809102018B7F8093020180910201FE
:1007B0008D7F8093020180910B018E7F0AC0809310
:1007C0000201809102018D7F8093020180910B01D3
:1007D000816080930B010895809102018160809374
:1007E00002010895EF92FF920F931F93CF93DF932F
:1007F0007B01EA0189010E94091E882311F060E053
:1008000006C0C7010E94091E882351F061E0C8019B
:10081000DF91CF911F910F91FF90EF900C94C21C2C
:10082000CE010E94091E882341F0C1E06C2FC8014F
:100830000E94D91CCF5FC930C9F7DF91CF911F91BA
:100840000F91FF90EF900895089561E086E996E09A
:100850000E94011A61E08FE696E00E94011A61E0B1
:1008600088E496E00E94011A61E081E296E00E942D
:10087000011A61E08EED95E00E94011A61E087EBBC
:1008800095E00E94011A61E080E995E00E94011A5A
:1008900061E089E695E00E94011A61E086E295E058
:1008A0000E94011A61E08FEF94E00E94011A61E05A
:1008B0008CEB94E00E94011A61E085E994E00E94CB
:1008C000011A61E082E594E00E94011A61E08BE286
:1008D00094E00E94011A61E088EE93E00E94011A00
:1008E00061E081EC93E00E94011A61E086E793E009
:1008F0000E94011A61E08FE493E00E94011A61E016
:1009000088E293E00E94011A61E08DED92E00E947E
:10091000011A61E086EB92E00E94011A61E08FE823
:1009200092E00E94011A61E088E692E00C94011ABC
:10093000CF93C0910A026C2F85E096E00E943B1D88
:100940006C2F8DE495E00E943B1D6C2F83EE94E0AC
:100950000E943B1D6C2F89E794E00E943B1D6C2F89
:100960008FE094E00E943B1D6C2F8CE093E00E948E
:100970003B1D6C2F8CE492E0CF910C943B1D6DE4F9
:1009800075E081EE96E00C94981C69E774E081EEC6
:1009900096E00C94981C63EE74E081EE96E00C9463
:1009A000981C65EA73E081EE96E00C94981C6CE06C
:1009B00073E081EE96E00C94981C6FE074E081EE99
:1009C00096E00C94981CEF92FF920F931F93CF9395
:1009D000DF938C017B010E94F019F801C681C530BC
:1009E000A0F4D0E0FE01EE0FFF1FE00FF11FF08E2C
:1009F000E78AC7010E94CB1DC00FD11F89A3F80150
:100A000086818F5F868381E001C080E0DF91CF9196
:100A10001F910F91FF90EF900895CF93DF93FC010A
:100A200040836183415042838FEF860F838381E04F
:100A30008483168216A2CF014796AF014F5D5F4FA8
:100A4000EA01DC011D921D921992A417B507D1F796
:100A5000DF0117961D921D92A817B907D9F782E0FA
:100A60008583B901CF01DF91CF91ADCFCF92DF92D6
:100A7000EF92FF920F931F93CF93DF93EC01CDDFA3
:100A8000CE010E94F0198E818530B8F4C82ED12C89
:100A9000F601EE0FFF1FEC0FFD1F108F078BF80103
:100AA00060817181828193810E94CD1DFE01EC0DD8
:100AB000FD1D81A38E818F5F8E83B701CE01DF91F3
:100AC000CF911F910F91FF90EF90DF90CF907BCF50
:100AD000EF92FF920F931F9322E232E040E060E03A
:100AE00086E996E09ADF22E132E041E060E08FE6BD
:100AF00096E093DF27E032E042E060E088E496E0B1
:100B00008CDF2EEF31E043E060E081E296E085DFAC
:100B100001E216E028E436E04FE656E066E976E0CA
:100B200085E096E00E942E1D2EEE31E040E060E070
:100B30008EED95E072DF21EE31E041E060E087EB81
:100B400095E06BDF24ED31E042E060E080E995E084
:100B500064DF28EC31E043E060E089E695E05DDFAA
:100B600009E615E020E935E047EB55E06EED75E06C
:100B70008DE495E00E942E1D2AEB31E040E060E01C
:100B800086E295E04ADF24EA31E041E060E08FEF61
:100B900094E043DF4FEF54E066E275E083EE94E0CB
:100BA0000E94121D27E931E040E060E08CEB94E008
:100BB00034DF21E831E041E060E085E994E02DDFB9
:100BC0004FEF54E066E275E089E794E00E94121D61
:100BD00020E731E040E060E082E594E01EDF2BE6B4
:100BE00031E041E060E08BE294E017DF4FEF54E04A
:100BF00066E275E08FE094E00E94121D26E531E088
:100C000040E060E088EE93E008DF21E531E041E07C
:100C100060E081EC93E001DF41EC53E068EE73E0CB
:100C200085EA93E00E94121D83E1E82E82E0F82E0F
:100C300001EA13E02BE431E040E060E086E793E076
:100C400015DF0DE913E025E431E041E060E08FE4D9
:100C500093E00CDF20E431E042E060E088E293E0E2
:100C6000DCDE28E233E04FE453E066E773E08CE03B
:100C700093E00E94201D2FE231E040E060E08DED26
:100C800092E0CBDE96E1E92E92E0F92E08E013E047
:100C90002EE131E041E060E086EB92E0E7DE23E127
:100CA000E22E22E0F22E04E013E02DE031E042E0FB
:100CB00060E08FE892E0DADE28E031E043E060E0D7
:100CC00088E692E0AADE08E612E02FE832E046EB82
:100CD00052E06DED72E08CE492E00E942E1D1F91B7
:100CE0000F91FF90EF90089581E097E00ECD81E0A5
:100CF00097E0EACC20E040910A0260910B028FE17C
:100D000097E00E943E1940EA56E861E070E083E017
:100D100097E07BD30FEF20ED37E040E050E063E059
:100D200083E097E0E2D42FEF44E351E260E070E02B
:100D300083E097E004D62FEF44E351E260E070E0F7
:100D400083E097E008D74FEF60E870E083E097E03A
:100D50000E9443104FEF67E083E097E00E94051088
:100D60004FEB54E061E086E996E00E94F1194FEB09
:100D700054E061E08FE696E00E94F1194FEB54E0F9
:100D800061E088E496E00E94F1194FEB54E061E0E5
:100D900081E296E00E94F11944E254E061E08EEDB8
:100DA00095E00E94F11945EC54E061E087EB95E095
:100DB0000E94F11941ED54E061E080E995E00E9464
:100DC000F11947ED54E061E089E695E00E94F119E0
:100DD00044E254E061E08CEB94E00E94F1194BECAA
:100DE00054E061E085E994E00E94F11944E756E09F
:100DF00062E085E994E00E94F11944E254E061E088
:100E000086E295E00E94F1194DED54E061E08FEF2C
:100E100094E00E94F11947E756E062E08FEF94E01A
:100E20000E94F11944E254E061E082E594E00E94FE
:100E3000F1194FEB54E061E08BE294E00E94F1196C
:100E400044E254E061E088EE93E00E94F1194FEB38
:100E500054E061E081EC93E00E94F11944E254E037
:100E600061E086E793E00E94F11944E254E061E01A
:100E70008FE493E00E94F1194FEB54E061E088E2C7
:100E800093E00E94F11944E254E061E08DED92E0BC
:100E90000E94F11944E254E061E086EB92E00E9486
:100EA000F11944E254E061E08FE892E00E94F11908
:100EB0004FEB54E061E088E692E00E94F11938DDE2
:100EC000C4DC65E076E081EE96E00E945F1C6DE494
:100ED00075E081EE96E00E945F1C63EE74E081EEA7
:100EE00096E00E945F1C69E774E081EE96E00E9444
:100EF0005F1C6FE074E081EE96E00E945F1C65EA83
:100F000073E081EE96E00E945F1C6CE073E081EE7E
:100F100096E00E945F1C6CE472E081EE96E00E9415
:100F20005F1C65E076E081EE96E00E94981C81EE01
:100F300096E00E948E1C21EE36E045ED56E06DEB0A
:100F400076E089EC96E04EDC0E94CE1600913707E1
:100F5000109138072091390730913A07DC01CB0115
:100F6000801B910BA20BB30B0091000210910102A8
:100F70002091020230910302081719072A073B0744
:100F8000D0F60E94CE16609337077093380780938F
:100F9000390790933A0781EE96E00E947A1C8C50B4
:100FA0009340C9F461E081E097E01BDB6093A1030B
:100FB0007093A2038093A3039093A40362E081E063
:100FC00097E00FDB60939D0370939E0380939F03D4
:100FD0009093A003ACCF81EE96E00E947A1C8C54D3
:100FE000924009F0A4CF60E083E097E038D76093A7
:100FF00008037093090380930A0390930B0360E046
:1010000083E097E0DCD6A0E0B0E080930403909307
:101010000503A0930603B093070389CF0895AF9209
:10102000CF92EF920F93A0900C02C0900D02E0902F
:101030000E0200910F022091100240911102609166
:1010400012028FE197E00E94CB1983E097E04AD12A
:1010500081E097E00CDA41E06FE177E081EE96E025
:101060000E94581C21E041E066E385ED96E00E9475
:10107000181E21E041E06DE389EC96E00E94181E05
:1010800021E041E067E38DEB96E00F91EF90CF9088
:10109000AF900C94181E81E097E0EAD983E097E0C6
:1010A00026C18F929F92AF92BF92CF92DF92EF9222
:1010B000FF920F931F93CF93DF9300D000D0CDB753
:1010C000DEB7FC01A22FAF70922F2083832F881FE1
:1010D0008827881F242F2F73220F282B20FB37F9F6
:1010E0003183822F86954295469546954370352FDC
:1010F000330F330F432B5295569556955370362F19
:10110000330F330F532B629566956695637073703A
:10111000770F770F762B342F3295330F330F307CC8
:101120008F73832B8283852F8295880F880F807C15
:1011300046954695482B4383872F8295880F880FC5
:10114000807C56955695582B548376957695658177
:101150006C7F762B7583A430B0F54F018781A13069
:10116000C0F59AE096838160878380E991E0938758
:10117000828784E690E091878087A12CFAECBF2ECD
:10118000AAE9CA2EBBE3DB2EE12CF12C00E010E033
:1011900030E040E050E060E070E080E090E00E94ED
:1011A000D520AA24AA94EFE7BE2EC12CD12C0E94F0
:1011B0007A21942F852FF401248735874687578716
:1011C000A4E1B0E037C0A430F1F1A83008F455C074
:1011D00076C09AE09683816087838DE790E093875D
:1011E000828789E190E091878087A12C8AECB82ED4
:1011F0009AE9C92E3BE3D32EE12CF12C00E010E05C
:1012000030E040E050E060E070E080E090E00E947C
:10121000D520AA24AA94EFE7BE2EC12CD12C0E947F
:101220007A21942F852FF4012487358746875787A5
:10123000A9E1B0E0492F582F0E94CB20608B718B21
:10124000828B938B3CC082E4868387818E7F8783E9
:101250008DE790E09387828780ED92E1A3E1B0E093
:1012600084879587A687B78780E896E9A8E9B0E0E4
:10127000808B918BA28BB38B22C08681807C8A600D
:101280008F73868387818E7F878320E233E0338765
:10129000228720E931E0318720871486158616865B
:1012A0001786108A118A128A138A292F2F702630E6
:1012B00011F48CE103C0273011F48EE28683269668
:1012C0000FB6F894DEBF0FBECDBFDF91CF911F9157
:1012D0000F91FF90EF90DF90CF90BF90AF909F90D5
:1012E0008F900895FC0110822FEF218308950895B7
:1012F0008F929F92AF92BF92CF92DF92FF920F9305
:101300001F93CF93DF93CDB7DEB764970FB6F894F2
:10131000DEBF0FBECDBFFC012181261789F12081E0
:10132000261770F1F62E8C01F6E06F9F5001112404
:101330004C0188E0880E911CF80132966F01AE1ABC
:10134000BF0AC5018C0D9D1D0E942622F6018193C6
:101350006F01E815F905A9F7F801F18222813381BF
:101360004481558166817781CE0101969ADE84E1C0
:10137000FE013196D801189601900D928A95E1F7F9
:1013800064960FB6F894DEBF0FBECDBFDF91CF914C
:101390001F910F91FF90DF90CF90BF90AF909F90E3
:1013A0008F900895CF92DF92FF920F931F93CF9368
:1013B000DF9326E0FC013896DC01129601900D9235
:1013C0002A95E1F726E0629FE00111248C010E5F6F
:1013D0001F4F6E0186E0C80ED11CF801F1908F01FD
:1013E000CE010E942622F81621F06F2DCE010E9418
:1013F0002E222196CC15DD0581F7DF91CF911F912B
:101400000F91FF90DF90CF90089589EA97E00C94B8
:1014100006141F93CF93DF93162FEA01622F89EAF8
:1014200097E00E940914612F89EA97E00E94B9139E
:101430006D2F89EA97E00E94B9136C2F89EA97E033
:101440000E94B91389EA97E00E9487148AE090E02D
:10145000DF91CF911F910C9438179F92AF92BF925A
:10146000CF92DF92EF92FF920F931F93CF93DF9370
:10147000EC0188858F7080678887CE0193DF88852F
:101480008F7009F451C0843008F0F9C02C893D896F
:101490004E895F896A85762F7295769576957370F9
:1014A0006B85E62FEE0FEE0F8E2F872B762F729522
:1014B0007695769573706C85E62FEE0FEE0F9E2F66
:1014C000972B62956695669563707D857370770F2F
:1014D000770FA72FA62B69856F77962EBC018A2FD1
:1014E00090E00E942621E0EAAE2EF6E8BF2ECC2442
:1014F000C394D12CE12CF12C00E010E00E947A2161
:1015000059016A017B018C0120E030E44DE053E099
:1015100060E070E080E090E00E947A21822F292D27
:10152000482F532F65E09EC02C893D894E895F89E5
:101530006A85762F72957695769573706B85E62F12
:10154000EE0FEE0F8E2F872B762F72957695769570
:1015500073706C85E62FEE0FEE0F9E2F972B629522
:101560006695669563707D857370770F770FA72FEB
:10157000A62B69856F77962EBC018A2F90E00E947A
:101580002621B0EAAB2E16E8B12ECC24C394D12C80
:10159000E12CF12C00E010E00E947A2159016A014F
:1015A0007B018C0120E030E04AE658E160E070E029
:1015B00080E090E00E947A21822F292D482F532F1E
:1015C00065E0CE0126DF8A85582F529556955695AF
:1015D00053709B85692F660F660F262F252B592F79
:1015E00052955695569553709C85692F660F660FD8
:1015F000362F352B592F52955695569553709D85FC
:101600009370990F990F492F452B50E01985A12F01
:10161000AA1FAA27AA1F8F73880FA82BB0E00E94C9
:10162000CB2028EE33E040E050E00E9470202932C9
:10163000310540F02135310538F0213A310530F0DF
:1016400043E005C040E003C041E001C042E0212F7B
:101650002F7750E0542F4427550F550F550F4F69E2
:10166000516260E0CE01DF91CF911F910F91FF9009
:10167000EF90DF90CF90BF90AF909F90CACEDF9158
:10168000CF911F910F91FF90EF90DF90CF90BF907F
:10169000AF909F900895CF93DF93D62FC42F642FE0
:1016A00089EA97E00E9409146D2F89EA97E00E9469
:1016B000B91389EA97E00E9487148AE090E00E94BB
:1016C000381742E06C2F89EA97E00E94851489EA76
:1016D00097E0C9D7D82F80E0C82F89EA97E0C3D711
:1016E0008C2B9D2BDF91CF9108955F926F927F920B
:1016F0008F929F92AF92BF92CF92DF92EF92FF9222
:101700000F931F93CF93DF93CDB7DEB764970FB6D8
:10171000F894DEBF0FBECDBF7C01962EB22ED32E25
:10172000C42EFC0180818111EAC089EA97E00E9401
:10173000F71310E4892C8794882487947B2C729467
:10174000770C770C30EC73220B2D069506956D2CDB
:101750006294660C660C40EC6422D694D6945C2CA1
:101760005294550C550C50EC5522C694C694612FDA
:1017700089EA97E00E94091489EA97E00E94871499
:101780008111B8C0F70180818F3F09F4B3C0412FA8
:1017900060E0C70180DF5C01212F40E050E860E09D
:1017A000C70137DE412F60E0C70175DF9C0181155D
:1017B000904831F4212FA50160E0C7012ADE9AC0CC
:1017C0002F3989E3380729F4F7018281807F8283EA
:1017D00029C02732F1E43F07A1F4412F6FEFC70181
:1017E0005ADF9C01F7019281907F2036F2E23F0799
:1017F00011F4916015C0232B11F0926011C0936019
:101800000FC0F7019281907F2732F1E63F0711F474
:10181000946006C02732314711F4956001C098608A
:10182000F7019283F7012281822F8F70883009F4AB
:1018300061C0312F3F7738293383492D46954F7347
:1018400047294483502F562955836D2D652966837A
:1018500077817C7F8C2D8370782B7783CE010196E6
:1018600020DC84E1FE013196D701189601900D929B
:101870008A95E1F7F70182818F70853071F5808557
:10188000807F856080876081C701E7DDF701808107
:1018900090E00196AA24AA94B12CB5010E945C2084
:1018A00080839085907F96609087682FC701D5DDF3
:1018B000F701808190E00196B5010E945C20808351
:1018C0009085907F97609087682FC701C6DDF701EC
:1018D000808190E00196B5010AC0F7016081C701DF
:1018E000BCDDF701808190E001966FEF70E00E940F
:1018F0005C2080831F5F103809F039CF06C0602F4D
:10190000C701F6DC602FC701A8DD8FEFF7018183E7
:10191000808164960FB6F894DEBF0FBECDBFDF9115
:10192000CF911F910F91FF90EF90DF90CF90BF90DC
:10193000AF909F908F907F906F905F900895CF921F
:10194000DF92EF92FF920F931F93CF93DF93EC01FF
:101950006A017B01022F10E06881161708F0F2C0BF
:101960000F3F29F0802F0E9450201913E9C0612FEA
:10197000CE01BEDC49854F7760E0CE018CDE588514
:10198000252F2F7021F0283008F0D4C074C024E037
:10199000C2162AE0D20621E0E206F10408F045C0B2
:1019A00042E0C41645E8D406E104F10408F040C062
:1019B0002CE7C21622E4D206E104F104E0F54EE37E
:1019C000C41641E2D406E104F104C0F524EAC216CB
:1019D00020E1D206E104F104A0F542E5C41648E096
:1019E000D406E104F10480F524E2C21624E0D20614
:1019F000E104F10460F544E1C41642E0D406E104D8
:101A0000F10440F524E1C21621E0D206E104F1041C
:101A100020F531E020E044E9C416D104E104F104EA
:101A200008F430E0632F722F1AC06FE070E017C027
:101A30006EE070E014C06DE070E011C06CE070E02A
:101A40000EC06BE070E00BC06AE070E008C069E0B7
:101A500070E005C068E070E002C062E070E09C01E8
:101A60002F77387F7695762F662777956795CB0108
:101A7000822B932B5FC028E0C21622E4D20621E01D
:101A8000E206F10478F548E5C41642EAD406E1041A
:101A9000F10458F528EAC21622E5D206E104F10461
:101AA00038F548EFC4164AE2D406E104F10418F50B
:101AB0002CE4C21622E0D206E104F104F8F44CE46E
:101AC000C41641E0D406E104F104D8F461E040E03A
:101AD0002CECC216D104E104F10408F460E0262FD6
:101AE000342F11C027E030E00EC026E030E00BC0FC
:101AF00025E030E008C024E030E005C023E030E01D
:101B000002C022E030E05F70BC016F737E7F513015
:101B100019F05550533030F496E0220F331F9A9548
:101B2000E1F705C03695322F222737952795C90151
:101B3000862B972B29852F77AC0160E0CE0169DCDD
:101B40001F5F0ACFDF91CF911F910F91FF90EF9010
:101B5000DF90CF900895CF92DF92EF92FF920F9394
:101B60001F93CF93DF93EC016A017B01022F10E0FA
:101B70006881161708F0E8C00F3F29F0802F0E94F7
:101B800050201913DFC0612FCE01B2DB49854F779A
:101B900060E0CE0180DDAC018885982F9F7021F038
:101BA000983008F0CAC06FC024E0C2162AE0D206FE
:101BB00021E0E206F10408F045C032E0C31635E842
:101BC000D306E104F10408F040C08CE7C81682E4B3
:101BD000D806E104F104E0F59EE3C91691E2D906C6
:101BE000E104F104C0F524EAC21620E1D206E104C2
:101BF000F104A0F532E5C31638E0D306E104F104A0
:101C000080F584E2C81684E0D806E104F10460F5AA
:101C100094E1C91692E0D906E104F10440F524E10B
:101C2000C21621E0D206E104F10420F591E080E043
:101C300034E9C316D104E104F10408F490E0292F3B
:101C4000382F1AC02FE030E017C02EE030E014C06B
:101C50002DE030E011C02CE030E00EC02BE030E091
:101C60000BC02AE030E008C029E030E005C028E0E1
:101C700030E002C022E030E0477C93E0220F331FC7
:101C80009A95E1F758C098E0C91692E4D90691E018
:101C9000E906F10478F528E5C21622EAD206E10445
:101CA000F10458F538EAC31632E5D306E104F1042D
:101CB00038F598EFC9169AE2D906E104F10418F54F
:101CC0002CE4C21622E0D206E104F104F8F43CE46C
:101CD000C31631E0D306E104F104D8F421E090E02A
:101CE0003CECC316D104E104F10408F420E0622FB7
:101CF000792F11C067E070E00EC066E070E00BC0A5
:101D000065E070E008C064E070E005C063E070E08A
:101D100002C062E070E08F709A01813019F0855046
:101D2000833010F4277E01C0277C83E0660F771F85
:101D30008A95E1F7AB01422B532B29852F7760E081
:101D4000CE0167DB1F5F14CFDF91CF911F910F9101
:101D5000FF90EF90DF90CF9008950F931F93CF9354
:101D6000DF93EC01C5DA49854F776E856770CE0148
:101D700092DC8C018885982F9F702BEF290F2330E0
:101D800010F0911105C093E0169507959A95E1F72B
:101D900082958F7082FD0DC081FF0BC049854F7702
:101DA00060E0CE0178DC29852F77AC0160E0CE01C0
:101DB00030DBC801DF91CF911F910F910895CF9330
:101DC000DF93EC01CADFAA89BB899C010E94B6207F
:101DD00024E630E040E050E00E947020C901DF912D
:101DE000CF910895CF92DF92EF92FF92CF93DF933E
:101DF000EC01F62EC8D0DC0198859F70943041F438
:101E00006F2DCE012CD028EC30E040E050E008C02F
:101E1000288939890E94C5202AE030E040E050E05E
:101E20000E94922069017A01888582958F7082FDD7
:101E30000DC080FF0BC049854F7760E0CE012BDCE1
:101E400029852F77AC0160E0CE01E3DAC701B60146
:101E5000DF91CF91FF90EF90DF90CF9008952F9278
:101E60003F924F925F926F927F928F929F92AF922A
:101E7000BF92CF92DF92EF92FF920F931F93CF9377
:101E8000DF93EC01162F34DA88858F70855083300C
:101E900090F5612FCE01A6DF2B013C019A8592952A
:101EA0009695969593708B85582F550F550F252F26
:101EB000292B982F92959695969593708C85582FEF
:101EC000550F550F352F392B982F9295969596953E
:101ED00093708D858370880F880F482F492B50E0B1
:101EE00060E472E48FE090E00E949220C301B201AE
:101EF0000E94412035C049854F776E85862F829597
:101F00008695869583706F856170660F660F682B66
:101F1000CE01C1DB4C895D896E897F891A012B0155
:101F2000A82E192F110F110BB92EC12ED12EE12E73
:101F3000F12E012F9A01A20160E070E080E090E0B4
:101F40000E94D520E8EEAE2EF3E0BF2EC12CD12C9E
:101F5000E12CF12C00E010E00E944F21B901CA01F0
:101F6000DF91CF911F910F91FF90EF90DF90CF9075
:101F7000BF90AF909F908F907F906F905F904F90A9
:101F80003F902F9008950F931F93CF93DF93EC0111
:101F9000162FAED988858F70843059F4612FCE0109
:101FA0005EDF20E43DE043E050E00E9492208901A2
:101FB00014C049854F776E856695669566956770FE
:101FC000CE0169DB8C0188858F708550833028F4C1
:101FD00083E0159507958A95E1F7888582958F703E
:101FE00082FD0DC080FF0BC049854F7760E0CE01B8
:101FF00052DB29852F77AC0160E0CE010ADAC801F7
:10200000DF91CF911F910F910895DF92EF92FF9290
:102010000F931F93CF93DF93EC01D42E10E06770E2
:10202000062F0295007F6881161728F58FEFD816C6
:1020300029F08D2D0E94502019131BC0612FCE0155
:1020400057D949854F7760E0CE0125DB887F7C0139
:1020500088858F70802B8887612FCE01A3D9298531
:102060002F77888582958F70A701482B60E0CE017D
:10207000D0D91F5FD8CFDF91CF911F910F91FF90E3
:10208000EF90DF900895CF92DF92EF92FF920F933F
:102090001F93CF93DF938C01EB01C42ED12CF80159
:1020A0006081D61608F08CC0FFEFCF1629F08C2D7A
:1020B0000E945020D91282C06D2DC80119D9F80193
:1020C00041854F7760E0C801E6DAAC01F801808510
:1020D0008F7021F0883008F06BC03EC0C038D10549
:1020E000A8F4C034D105A8F4C032D105A8F4C03199
:1020F000D105A8F4C830D105A8F4C430D105A8F49E
:10210000C230D105A8F428E030E014C02FE030E060
:1021100011C02EE030E00EC02DE030E00BC02CE00E
:1021200030E008C02BE030E005C02AE030E002C01B
:1021300029E030E0C90163E0880F991F6A95E1F753
:102140003695322F222737952795282B392B477024
:10215000587F422B532B2CC0C115F4E0DF07B8F495
:10216000C11582E0D807A8F4CF3FD10509F098F453
:10217000C038D10590F4C034D10588F4C031D10500
:1021800080F491E0C430D10568F490E00BC097E092
:1021900009C096E007C095E005C094E003C093E055
:1021A00001C092E0F92EFF0CE12C517F4E295F29EE
:1021B000F80121852F7760E0C8012BD9D3946FCF28
:1021C000DF91CF911F910F91FF90EF90DF90CF9013
:1021D00008951092A80781E08093A6071092A507A2
:1021E00061E084E144D761E085E141D7E9EBF0E0CB
:1021F00080818E7F808380818D7F808388E480933F
:10220000B80085E48093BC0008959B01AC0160E0B8
:1022100074E284EF90E00E947020DA01C9014097D7
:10222000A109B109B695A795979587958093B800B0
:102230000895413208F043C09091A8079111FCCF56
:1022400091E09093A8072093A6072FEF20933B07D8
:1022500010928007240F20937F079093A7079091F7
:10226000A707880F892B8093A7078091A507813046
:1022700061F41092A5078091A7078093BB0080911D
:10228000BC0083FDF8CF85EC01C085EE8093BC00D7
:102290008091A8078130E1F380918007841710F4C2
:1022A00040918007A1E8B7E0962FFB018E2F891B94
:1022B000841718F48D918193F9CF842F089580E0CD
:1022C00008950F93413208F04AC09091A8079111E8
:1022D000FCCF32E03093A8070093A6073FEF30937E
:1022E0003B071092800740937F07562FA1E8B7E085
:1022F000FB013E2F351B341718F431913D93F9CF74
:102300001092A7073091A707880F832B8093A70708
:102310008091A507813061F41092A5078091A707ED
:102320008093BB008091BC0083FDF8CF85EC01C099
:1023300085EE8093BC00222321F08091A807823093
:10234000D1F380913B078F3F79F080913B0780323A
:1023500041F080913B07803331F094E005C091E07B
:1023600003C092E001C093E0892F0F91089540913E
:102370005D07262F30E0240F311D21323105DCF4BA
:102380002091A8072430C9F4FC0180E090E0861772
:1023900058F430915D072191DC01A15AB84FA30F89
:1023A000B11D2C930196F3CF80915D07680F609368
:1023B0005D0780E0089581E0089582E0089590939C
:1023C000A2078093A10708959093A4078093A30781
:1023D000089585ED8093BC008091BC0084FDFCCF06
:1023E0001092A807089585EC8093BC001092A8076E
:1023F00008951F920F920FB60F9211240BB60F92F1
:102400002F933F934F935F936F937F938F939F93FC
:10241000AF93BF93EF93FF938091B900887F80368D
:1024200009F49DC070F5883209F45CC090F48031E5
:1024300009F455C038F4882309F4F3C0883009F44E
:102440004EC0F2C0883109F44DC0803209F45EC03C
:10245000EBC0803409F469C050F4803309F456C0ED
:10246000883309F0E1C080933B07BDDFDDC08035D4
:1024700009F44FC0883509F45DC0883409F0D4C030
:10248000D2C0883909F4C3C0A8F4883709F467C0FA
:1024900038F4883609F463C0803709F460C0C4C0DA
:1024A000883809F4B4C0803909F45FC0803809F075
:1024B000BBC05BC0803B09F482C038F4803A09F4A9
:1024C00066C0883A09F47BC0AFC0803C09F4A3C061
:1024D000883C09F4A0C0883B09F486C0A5C080915F
:1024E000A70710C09091800780917F07981770F51B
:1024F000E091800781E08E0F80938007F0E0EF5736
:10250000F84F80818093BB0085EC82C080933B07AD
:102510008AC0E091800781E08E0F809380078091D0
:10252000BB00F0E0EF57F84F8083909180078091D7
:102530007F076AC0E091800781E08E0F809380075B
:102540008091BB00F0E0EF57F84F80838091A607A1
:10255000811169C081E08093A50784EA5DC083E0B2
:102560008093A80710923C07CFCF80913C07803220
:1025700008F04DC0E0913C0781E08E0F80933C074E
:102580008091BB00F0E0E35CF84F8083BDCF2BDF90
:1025900080913C07803230F4E0913C07F0E0E35C4E
:1025A000F84F108260913C0770E0E091A107F09134
:1025B000A2078DE397E0199510923C0735C084E09F
:1025C0008093A80710925E0710925D07E091A30721
:1025D000F091A407199580915D07811105C081E0F4
:1025E00080935D0710925F07E0915E0781E08E0F98
:1025F00080935E07F0E0E15AF84F80818093BB0042
:1026000090915E0780915D07981708F47DCF85E86B
:102610008093BC0009C085EC8093BC001092A80791
:1026200003C010923B07D5DEFF91EF91BF91AF91B0
:102630009F918F917F916F915F914F913F912F91DA
:102640000F900BBE0F900FBE0F901F90189580E05B
:1026500090E0089508958091DD0790E02091DE07D5
:10266000821B910908959091DE078091DD079817EC
:1026700050F4E92FF0E0E152F84F208130E09F5F05
:102680009093DE0702C02FEF3FEFC9010895E0915C
:10269000DE078091DD07E81730F4F0E0E152F84FF3
:1026A000808190E008958FEF9FEF08950895CF9374
:1026B000DF93EC01E091B507F091B6073097F1F0A8
:1026C0009091DE078091DD079817C0F090E0292FE8
:1026D00030E02617370754F4DE01A20FB31F4C91E8
:1026E000D901A152B84F4C939F5FF1CF1092DE07F2
:1026F0006093DD07CB01DF91CF911994DF91CF91EA
:102700000895E091B707F091B807309729F010923B
:10271000BB071092BA0719940895CF92DF92EF92F7
:10272000FF920F931F93CF93DF937C01CB018A011C
:102730002091B907222389F0EB016B01C40ED51E4D
:10274000CC15DD0561F06991D701ED91FC91019007
:10275000F081E02DC7011995F3CF642F08DEC80181
:10276000DF91CF911F910F91FF90EF90DF90CF906D
:102770000895CF93DF931F92CDB7DEB76983209181
:10278000B9072223D1F02091BA07203240F021E08E
:1027900030E0FC013383228380E090E014C080911C
:1027A000BB07E82FF0E0E454F84F998190838F5FE6
:1027B0008093BB078093BA0704C061E0CE01019605
:1027C000D6DD81E090E00F90DF91CF910895FC017C
:1027D0001382128288EE93E0A0E0B0E084839583B8
:1027E000A683B7838DE192E0918380830895109250
:1027F000DE071092DD071092BB071092BA07E9DCE2
:1028000081E893E1E1DD87E593E1D9CDCB01BA0120
:10281000FCCC81E08093B9076093DC071092BB0782
:102820001092BA0708950F93062F21E04091BA073E
:102830006CEB77E08091DC0744DD1092BB071092CF
:10284000BA071092B9070F9108954F925F926F9255
:102850007F92AF92BF92CF92EF92FF920F931F930E
:10286000CF93DF935C01F62ED42F28013901EE209F
:1028700011F1CFDFCE2DC43008F0C3E0C150C0F05D
:1028800028E0C29FC0011124A301920104C0569503
:102890004795379527958A95D2F7CA01B901D50191
:1028A000ED91FC910190F081E02DC5011995E6CFE5
:1028B00060E0C501B8DF4D2FD13208F040E22C2D89
:1028C0006FED77E08F2DB5DC1092DE078093DD078A
:1028D000DF91CF911F910F91FF90EF90CF90BF901C
:1028E000AF907F906F905F904F900895CF92EF924E
:1028F0000F931F93C22EE12C00E010E09801A5DF9A
:102900001F910F91EF90CF90089521E0EFCF61E0FC
:102910008ACF89EA97E05BCF5058BB27AA270ED011
:1029200048C139D130F03ED120F031F49F3F11F44D
:102930001EF42EC10EF4E095E7FB24C1E92F4AD125
:1029400080F3BA17620773078407950718F071F4CC
:102950009EF562C10EF4E0950B2EBA2FA02D0B014F
:10296000B90190010C01CA01A0011124FF27591BD4
:1029700099F0593F50F4503E68F11A16F040A22FDA
:10298000232F342F4427585FF3CF4695379527954B
:10299000A795F0405395C9F77EF41F16BA0B620B4A
:1029A000730B840BBAF09150A1F0FF0FBB1F661F91
:1029B000771F881FC2F70EC0BA0F621F731F841FD4
:1029C00048F4879577956795B795F7959E3F08F0FA
:1029D000B3CF9395880F08F09927EE0F97958795B9
:1029E00008950CD0E6C0DED040F0D5D030F021F410
:1029F0005F3F19F0C7C0511110C1CAC0EBD098F3A6
:102A00009923C9F35523B1F3951B550BBB27AA276F
:102A100062177307840738F09F5F5F4F220F331FE1
:102A2000441FAA1FA9F333D00E2E3AF0E0E830D0AD
:102A300091505040E695001CCAF729D0FE2F27D0B0
:102A4000660F771F881FBB1F261737074807AB077E
:102A5000B0E809F0BB0B802DBF01FF2793585F4FF3
:102A60002AF09E3F510568F08DC0D7C05F3FECF360
:102A7000983EDCF3869577956795B795F7959F5FB8
:102A8000C9F7880F911D9695879597F90895E1E00C
:102A9000660F771F881FBB1F621773078407BA076B
:102AA00020F0621B730B840BBA0BEE1F88F7E095C6
:102AB000089598D088F09F5790F0B92F9927B75173
:102AC000A0F0D1F0660F771F881F991F1AF0BA95F2
:102AD000C9F712C0B13081F09FD0B1E008959CC019
:102AE000672F782F8827B85F39F0B93FCCF38695E8
:102AF00077956795B395D9F73EF490958095709545
:102B000061957F4F8F4F9F4F0895E89409C097FBC1
:102B10003EF490958095709561957F4F8F4F9F4FB4
:102B20009923A9F0F92F96E9BB279395F6958795F8
:102B300077956795B795F111F8CFFAF4BB0F11F4BB
:102B400060FF1BC06F5F7F4F8F4F9F4F16C0882362
:102B500011F096E911C0772321F09EE8872F762F98
:102B600005C0662371F096E8862F70E060E02AF0D9
:102B70009A95660F771F881FDAF7880F96958795C5
:102B800097F9089597F99F6780E870E060E00895ED
:102B90009FEF80EC089500240A9416161706180675
:102BA0000906089500240A94121613061406050651
:102BB0000895092E0394000C11F4882352F0BB0FE2
:102BC00040F4BF2B11F460FF04C06F5F7F4F8F4F45
:102BD0009F4F089557FD9058440F551F59F05F3F80
:102BE00071F04795880F97FB991F61F09F3F79F02F
:102BF00087950895121613061406551FF2CF4695B1
:102C0000F1DF08C0161617061806991FF1CF869532
:102C10007105610508940895E894BB276627772716
:102C2000CB0197F908950BD0C4CFB5DF28F0BADFF8
:102C300018F0952309F0A6CFABCF1124EECFCADF51
:102C4000A0F3959FD1F3950F50E0551F629FF001BF
:102C5000729FBB27F00DB11D639FAA27F00DB11D18
:102C6000AA1F649F6627B00DA11D661F829F2227A1
:102C7000B00DA11D621F739FB00DA11D621F839F28
:102C8000A00D611D221F749F3327A00D611D231FFE
:102C9000849F600D211D822F762F6A2F11249F574C
:102CA00050408AF0E1F088234AF0EE0FFF1FBB1F6F
:102CB000661F771F881F91505040A9F79E3F51050E
:102CC00070F060CFAACF5F3FECF3983EDCF38695BF
:102CD00077956795B795F795E7959F5FC1F7FE2BB9
:102CE000880F911D9695879597F908950895CBD0F3
:102CF000FDDF0E947A06C0E0D0E00E940E08209717
:102D0000E1F30E940000F9CF1F920F920FB60F92CD
:102D100011242F933F938F939F93AF93BF938091F1
:102D2000000890910108A0910208B0910308309129
:102D3000FF0723E0230F2D3720F40196A11DB11DBD
:102D400005C026E8230F0296A11DB11D2093FF07A1
:102D50008093000890930108A0930208B0930308A1
:102D60008091040890910508A0910608B091070889
:102D70000196A11DB11D8093040890930508A093AE
:102D80000608B0930708BF91AF919F918F913F9133
:102D90002F910F900FBE0F901F9018952FB7F8949A
:102DA00060910008709101088091020890910308D9
:102DB0002FBF08953FB7F8948091040890910508BB
:102DC000A0910608B091070826B5A89B05C02F3F23
:102DD00019F00196A11DB11D3FBFBA2FA92F982F41
:102DE0008827820F911DA11DB11DBC01CD0142E0BC
:102DF000660F771F881F991F4A95D1F708958F9204
:102E00009F92AF92BF92CF92DF92EF92FF926B01AF
:102E10007C01D0DF4B015C01C114D104E104F10459
:102E2000F1F03DD7C7DFDC01CB0188199909AA0968
:102E3000BB09883E9340A105B10570F321E0C21A99
:102E4000D108E108F10888EE880E83E0981EA11CE5
:102E5000B11CC114D104E104F10421F7DDCFFF90CE
:102E6000EF90DF90CF90BF90AF909F908F9008959C
:102E70008230910538F0880F991F880F991F0597A8
:102E80000197F1F70895789484B5826084BD84B584
:102E9000816084BD85B5826085BD85B5816085BD55
:102EA000EEE6F0E0808181608083E1E8F0E010826E
:102EB000808182608083808181608083E0E8F0E0AF
:102EC000808181608083E1EBF0E080818460808399
:102ED000E0EBF0E0808181608083E1E9F0E08081D7
:102EE00082608083808181608083E0E9F0E080817E
:102EF00081608083E1EAF0E080818260808380816C
:102F000081608083E0EAF0E0808181608083E1E29B
:102F1000F1E0808182608083808181608083E0E253
:102F2000F1E0808181608083EAE7F0E08081846065
:102F300080838081826080838081816080838081C2
:102F4000806880831092C100089590E0FC01319761
:102F5000E231F10508F04EC08827EE58FF4F8F4F41
:102F60000C94AE20809180008F7703C08091800008
:102F70008F7D80938000089580918000877FF9CFB6
:102F800084B58F7702C084B58F7D84BD089580910C
:102F9000B0008F7703C08091B0008F7D8093B00028
:102FA0000895809190008F7707C0809190008F7D69
:102FB00003C080919000877F809390000895809156
:102FC000A0008F7707C08091A0008F7D03C0809103
:102FD000A000877F8093A0000895809120018F77C3
:102FE00007C0809120018F7D03C080912001877FE1
:102FF000809320010895CF93DF9390E0FC01E75880
:10300000FD4F2491FC01E154FD4F8491882361F12F
:1030100090E0880F991FFC01E75CFC4FC591D491AB
:10302000FC01E15EFC4FA591B491611109C09FB70D
:10303000F8948881209582238883EC912E230BC0FD
:10304000623061F49FB7F8948881322F30958323E2
:103050008883EC912E2B2C939FBF06C08FB7F894DA
:10306000E8812E2B28838FBFDF91CF9108951F9386
:10307000CF93DF93282F30E0F901ED5CFD4F849171
:10308000F901E758FD4FD491F901E154FD4FC49186
:10309000CC23B9F0162F811158DFEC2FF0E0EE0FA2
:1030A000FF1FE15EFC4FA591B4919FB7F8941111F9
:1030B00004C08C91D095D82302C0EC91DE2BDC9318
:1030C0009FBFDF91CF911F910895CF93DF93282F5A
:1030D00030E0F901ED5CFD4F8491F901E758FD4FB7
:1030E000D491F901E154FD4FC491CC2389F08111B1
:1030F0002CDFEC2FF0E0EE0FFF1FEB5FFC4FA591F4
:10310000B491EC91ED2381E090E021F480E002C0E5
:1031100080E090E0DF91CF910895CF93DF93EC01B1
:1031200060E08E81A4DF81E090E0A2DE61E08E812C
:103130009EDF81E090E09CDE60E08E8198DF84E697
:1031400090E0DF91CF9194CECF92DF92EF92FF92F9
:103150000F931F93CF93DF936C017C0187E0E80E00
:10316000F11CC0E0D0E0062F10E0B8010C2E02C028
:10317000759567950A94E2F76170F70181917F0177
:1031800076DF2196C430D10581F7C601DF91CF915A
:103190001F910F91FF90EF90DF90CF90BECFCF9215
:1031A000DF92EF92FF920F931F93CF93DF936C0107
:1031B0007C0187E0E80EF11CC0E0D0E0062F10E0B3
:1031C000B8010C2E02C0759567950A94E2F76170FC
:1031D000F70181917F014BDF2196C830D10581F73E
:1031E000C601DF91CF911F910F91FF90EF90DF907B
:1031F000CF9093CF1F93CF93DF93EC01162F642FC3
:103200008C8135DF8D818F3F11F060E030DF8F855D
:10321000612F84FF05C0CE01DF91CF911F91BFCFF9
:1032200070E084E0759567958A95E1F7CE018CDFB3
:10323000612FCE01DF91CF911F9186CF40E0DACF91
:1032400061E0FCDF80ED97E013CEFC01443008F034
:1032500043E08389481710F04FEF480FDF01A40FB8
:10326000B11D54969C91690F6068CF01E7CFFC01B6
:103270006089262F2460208B6C60E0CFEF92FF9254
:103280000F931F93CF93DF93EC01423018F08F859B
:1032900088608F874B8B1C8A80E48D8B6E8B70E0EF
:1032A000605C7F4F6F8B222329F0413019F48F85AA
:1032B00084608F8761E08C819EDE8D818F3F11F06D
:1032C00061E099DE61E08E8196DE7E0187E0E80EA6
:1032D000F11C00E010E08F8584FD03C084E090E0E5
:1032E00002C088E090E00817190744F461E0F70194
:1032F00081917F0180DE0F5F1F4FEDCF80E593EC62
:10330000B7DD60E08C81B3DE60E08E81B0DE8D8160
:103310008F3F11F060E0ABDE6F8564FD16C063E0A7
:10332000CE0112DF84E991E1A3DD63E0CE010CDF81
:1033300084E991E19DDD63E0CE0106DF86E990E05E
:1033400097DD62E0CE0100DF11C06062CE0176DF62
:1033500084E991E18DDD6F856062CE016FDF86E9E2
:1033600090E086DD6F856062CE0168DF6F85606208
:10337000CE0164DF84E0888BCE0179DFCE0160DF8F
:1033800082E0898B66E0CE01DF91CF911F910F9192
:10339000FF90EF9053CFAF92CF92EF920F93FC013B
:1033A000138212828FE292E091838083648345834B
:1033B00026830783E086C186A28613861486158637
:1033C0001686178620E041E060E1CF010F91EF9073
:1033D000CF90AF9053CF41E00DDF81E090E00895B2
:1033E0000895693060F4FC01E60FF11DE60FF11D50
:1033F0005683458321E0FC0126A381E0089580E007
:1034000008956150653050F4FC01E60FF11D81A173
:103410008E3321F481E481A381E0089580E0089552
:10342000AF92BF92CF92DF92EF92FF920F931F93D2
:10343000CF93DF931F921F92CDB7DEB7FC018B01B4
:10344000EDB6FEB650E0DC01A40FB51F91968C914D
:10345000813409F4D9C008F050C0803209F4A2C008
:1034600040F5893009F489C090F4813009F4B2C084
:10347000883009F0A7C1440F551FE40FF51F0788D6
:10348000F08DE02D6081062E000C770B97C1803106
:1034900009F47EC0813109F095C1440F551FE40F36
:1034A000F51F0788F08DE02D608171814AE050E0C2
:1034B0003EC18C3309F458C0A0F4813209F47EC0B7
:1034C000823309F07FC1258130E0440F551FE40F9E
:1034D000F51F0788F08DE02D408151816281738155
:1034E0005DC18D33A9F18E3309F06CC1440F551FB6
:1034F000E40FF51F6789708D34C0893D09F409C157
:1035000090F4803D09F4D6C038F4863409F46BC0D9
:10351000893C09F446C156C1813D09F4DAC0883DB1
:1035200009F4E8C04FC1803F09F429C138F4883E4E
:1035300009F400C1893E09F410C144C18B3F09F46C
:103540009DC08C3F09F49AC08A3F09F03BC1A3C0DB
:10355000440F551FE40FF51F0788F08DE02D6081A3
:103560007181C801DCD32EC1440F551FE40FF51F34
:103570000788F08DE02D60819AC0440F551FE40F3D
:10358000F51F0788F08DE02D4AE050E06081AFC064
:10359000440F551FE40FF51F0788F08DE02D608163
:1035A00071810CC1440F551FE40FF51F0788F08D82
:1035B000E02D4081518162817381CAC0440F551F43
:1035C000E40FF51F0788F08DE02D40815181628165
:1035D0007381D0C0440F551FE40FF51F0788F08D8D
:1035E000E02D6081EAC0440F551FE40FF51FA78945
:1035F000B08DFB0180819181FC01208131816C9132
:10360000C801F9011995DEC0CDB6DEB6440F551FCD
:10361000E40FF51FA788B08CC5010FD79A83898363
:1036200089819A812DB73EB7281B390B0FB6F894C4
:103630003EBF0FBE2DBF6DB77EB76F5F7F4F20E0DF
:10364000822F90E049815A818417950754F4F5013F
:10365000E80FF91FE491DB01A80FB91FEC932F5F6E
:10366000EFCFE981FA81E60FF71F1082C80157D327
:103670000FB6F894DEBE0FBECDBEA4C0440F551FDA
:10368000E40FF51F0788F08DE02D309709F49AC0FC
:103690001995BC0166CF440F551FE40FF51F07882D
:1036A000F08DE02D309709F48DC01995682FC80171
:1036B00037D388C0440F551FE40FF51F0788F08DDE
:1036C000E02D309709F47EC01995682F880F770B8D
:1036D00075C0440F551FE40FF51F0788F08DE02DCE
:1036E000309709F46FC019954AE050E0682FC8017F
:1036F00071D368C0440F551FE40FF51F0788F08D84
:10370000E02D309709F45EC019954AE050E0BC0105
:1037100057C0440F551FE40FF51F0788F08DE02DAB
:10372000309709F44FC019954AE050E0BC01C80138
:1037300057D348C09A01220F331FE20FF31F0788A7
:10374000F08DE02D309709F43DC01995AB01BC0117
:103750002AE030E0C80149D335C09A01220F331F57
:10376000E20FF31F0788F08DE02D309759F119957E
:10377000AB01BC012AE030E0C80120D323C09A018C
:10378000220F331FE20FF31F0788F08DE02D3097D3
:10379000C9F01995AB01BC0122E030E0C80140D46A
:1037A00011C09A01220F331FE20FF31F0788F08D1B
:1037B000E02D309739F01995682F70E04AE050E01D
:1037C000C80158D30FB6F894FEBE0FBEEDBE0F90E1
:1037D0000F90DF91CF911F910F91FF90EF90DF90AD
:1037E000CF90BF90AF900895EF92FF920F931F93E9
:1037F000CF93DF938C01EB01E42EDC014C91119609
:103800006C91CE0122DDF12C4F2DBE01C80108DEE6
:10381000F394B5E0FB12F8CFEE2099F1F801848122
:10382000823059F08330A9F0E881F9818130E9F0E4
:1038300081E0D80114968C9318C061816150408159
:10384000CE0103DDE881F9810190F081E02D6EE089
:1038500010C0F80142816381CE01F7DCE881F98173
:103860000190F081E02D6DE004C00190F081E02D29
:103870006FE0CE01DF91CF911F910F91FF90EF90FC
:103880001994DF91CF911F910F91FF90EF900895C0
:10389000860F911D860F911DDC011596ED91FC910F
:1038A0001697309719F0199581E0089580E00895F2
:1038B000FC0171836083168E4150478F08950F93EA
:1038C0001F93CF93DF93EC018B018ADD8E8D8E30B9
:1038D00058F4FE01E80FF11DE80FF11D1383028378
:1038E0008F5F8E8F81E001C080E0DF91CF911F91CB
:1038F0000F910895FC01278DE20FF11DE20FF11DDC
:10390000828193810895FC0160817181878DE80F28
:10391000F11DE80FF11D82819381B0C0CF93DF9339
:10392000EC01888199818CDCCE01DF91CF91EBCFC6
:10393000EF92FF920F931F93CF938C017B01C0E016
:10394000F801868DC817B8F48081918179DCF8017F
:10395000EC0FF11DEC0FF11D828193818E159F05F7
:1039600041F4F801C78FC801D9DFC801D7DF81E072
:1039700003C0CF5FE5CF80E0CF911F910F91FF9003
:10398000EF9008951F93CF93DF93EC01162F88815A
:10399000998156DC8F8DFE01E80FF11DE80FF11DB6
:1039A000612F82819381BFD0CE01DF91CF911F9192
:1039B000B5CF1F93CF93DF93EC018F8DFE01E80FFE
:1039C000F11DE80FF11D82819381D7D0182FCE0110
:1039D000A5DF812FDF91CF911F9108950F931F9342
:1039E000CF93DF93EC018B01FBDC888D8C3078F476
:1039F000FE01E80FF11DE80FF11D118300838F5FB9
:103A0000888F998D9F5F998F8A8F81E001C080E0B8
:103A1000DF91CF911F910F910895FC01108E118EAF
:103A2000138EDCCF0F931F93CF93DF93EC018A01AA
:103A3000F4DFB801CE01DF91CF911F910F91CECF6E
:103A40000F931F93CF93DF93EC018901EBDFB80154
:103A5000CE01DF91CF911F910F91C0CF0F931F9394
:103A6000CF93DF93EC01ECDFB801CE01DF91CF9172
:103A70001F910F91B3CFFC01628F0895BF92CF9237
:103A8000DF92EF92FF920F931F93CF93DF938C01FE
:103A90006B01FC01B28C808DBB2011F08B1508F4FA
:103AA000B82EF801C18DEB2CF12CCB1568F0CF5F4F
:103AB000CB19A7014C0F511D282F30E024173507D3
:103AC00024F4C82FCB1901C0C0E0DC2FEC0EF11C90
:103AD0002D2F2C1B8D2F90E08E159F05D4F441E0E7
:103AE000F801318D3D1340E0F801308D880F991FAA
:103AF000B31630F4E80FF91F0190F081E02D208318
:103B0000F801E80FF91FB601808191816DDEDF5F5A
:103B1000DFCFDF91CF911F910F91FF90EF90DF905A
:103B2000CF90BF9008951F93CF93DF93EC01162F92
:103B300057DC898D112351F0988D891728F48F5FF8
:103B4000898F98130AC015C0198E07C0811103C050
:103B5000888D898F0EC08150898F898DFE01E80F75
:103B6000F11DE80FF11D0190F081E02D86A1882361
:103B700001F3DF91CF911F910895FC01818D908D0C
:103B8000891739F0E80FF11DE80FF11D808191814F
:103B90007FCE80E008958EE3089581E208951F931B
:103BA000CF93DF93EC01162FF9D82881213061F0F3
:103BB00028F02230B1F02330D9F026C0111124C0F2
:103BC0007A83698381E012C0112311F018821CC02E
:103BD00029813A81621B730B6F307105A8F082E076
:103BE00005C0112389F07A83698383E088830CC040
:103BF0001123A9F329813A81621B730B6F30710580
:103C000018F0188281E001C080E0DF91CF911F9110
:103C10000895CF93DF93EC01E881F9810190F08161
:103C2000E02D1995682FCE010296DF91CF91B7CF85
:103C3000FC01128215828BE392E0918380831086CF
:103C4000618781E0411101C080E0828781E021111C
:103C500001C080E083870895FC018285882311F0EC
:103C600062E001C060E08185C6D985E090E000C9CE
:103C7000CF93DF93EC018885811104C081E08887B0
:103C8000CE01EADF898521DA2B8530E041E0281773
:103C9000390709F440E0842FDF91CF91089508950A
:103CA000CF92DF92EF92FF920F931F93CF93DF9308
:103CB0006C017A018B01C0E0D0E0CE15DF0581F008
:103CC000D8016D918D01D601ED91FC910190F081AB
:103CD000E02DC6011995892B11F02196EECF7E01BA
:103CE000C701DF91CF911F910F91FF90EF90DF906F
:103CF000CF9008956115710579F0FB0101900020C6
:103D0000E9F73197AF01461B570BDC01ED91FC91B0
:103D10000280F381E02D199480E090E00895EACFCD
:103D2000DC01ED91FC910190F081E02D19948F92CE
:103D30009F92AF92BF92EF92FF920F931F93CF93F8
:103D4000DF93CDB7DEB7A1970FB6F894DEBF0FBEF5
:103D5000CDBF7C01FA01CB0119A2223008F42AE080
:103D60008E010F5D1F4F822E912CA12CB12CBF0113
:103D7000A5019401B5D1F901CA01015011096A30B8
:103D800010F4605D01C0695CD8016C93232B242B77
:103D9000252B69F7B801C701ADDFA1960FB6F894DE
:103DA000DEBF0FBECDBFDF91CF911F910F91FF906E
:103DB000EF90BF90AF909F908F900895211531059F
:103DC00041F4DC01ED91FC910190F081E02D642F34
:103DD0001994ADCF9A01462F50E060E070E0EECF2D
:103DE0009A01AB0160E070E0E9CFCF92DF92EF92F1
:103DF000FF920F931F93CF93DF932115310581F429
:103E0000DC01ED91FC910190F081E02D642FDF91B8
:103E1000CF911F910F91FF90EF90DF90CF90199469
:103E20002A303105F1F477FF1BC06A017B01EC01F8
:103E30006DE276DF8C0144275527BA014C195D09E4
:103E40006E097F092AE0CE0172DF800F911FDF919A
:103E5000CF911F910F91FF90EF90DF90CF90089539
:103E60002AE0DF91CF911F910F91FF90EF90DF90AB
:103E7000CF905DCF9A01AB01770F660B770BB5CF73
:103E80007F928F929F92AF92BF92CF92DF92EF92EA
:103E9000FF920F931F93CF93DF938C016A017B01F5
:103EA000722E9A01AB01C701B601E7D0882319F041
:103EB00060E472E024C046015701E894B7F82FEFA0
:103EC0003FEF4FE75FE7C501B401D7D081110CC0C8
:103ED0002FEF3FEF4FE75FE7C501B401A2D01816FF
:103EE0001CF464E472E00BC02FEF3FEF4FE75FE498
:103EF000C701B601BED018168CF468E472E0C801A0
:103F0000DF91CF911F910F91FF90EF90DF90CF90B5
:103F1000BF90AF909F908F907F90ECCE2FEF3FEFB0
:103F20004FE75FECC701B6017CD087FDE6CF20E00C
:103F300030E0A901C701B60174D087FF09C06DE266
:103F4000C801EEDEEC01F7FAF094F7F8F09402C045
:103F5000C0E0D0E0B12C60E070E080E09FE37B1433
:103F600041F020E030E040E251E40E94F114B394CB
:103F7000F6CFA70196010E948D146B017C010E946F
:103F800059154B015C012AE0AB01BC01C801CFDE31
:103F9000C80FD91F7720A9F1C501B4010E9485156A
:103FA0009B01AC01C701B6010E948C146B017C011E
:103FB0006EE2C801B5DEC80FD91F20E030E040E254
:103FC00051E4C701B6010E9413164B015C010E9427
:103FD00059156B017C014AE050E0C80101DFC80FB0
:103FE000D91FB60180E090E00E9485159B01AC01CD
:103FF000C501B4010E948C146B017C017A9471108C
:10400000DCCFCE01DF91CF911F910F91FF90EF9008
:10401000DF90CF90BF90AF909F908F907F9008954A
:104020002FCF03D008F481E00895990F0008550FB1
:10403000AA0BE0E8FEEF16161706E807F907C0F02E
:1040400012161306E407F50798F0621B730B840B36
:10405000950B39F40A2661F0232B242B252B21F410
:1040600008950A2609F4A140A6958FEF811D811DB0
:104070000895DBDF08F48FEF0895D7DF880B990BE5
:104080000895DB018F939F9386D0BF91AF91A29F3C
:10409000800D911DA39F900DB29F900D1124089546
:1040A000991B79E004C0991F961708F0961B881F8A
:1040B0007A95C9F780950895AA1BBB1B51E107C0EB
:1040C000AA1FBB1FA617B70710F0A61BB70B881FA8
:1040D000991F5A95A9F780959095BC01CD01089537
:1040E000A1E21A2EAA1BBB1BFD010DC0AA1FBB1FFC
:1040F000EE1FFF1FA217B307E407F50720F0A21B6E
:10410000B30BE40BF50B661F771F881F991F1A94DA
:1041100069F760957095809590959B01AC01BD0104
:10412000CF010895052E97FB16F400940FD057FD8C
:1041300005D0D6DF07FC02D046F408C05095409564
:10414000309521953F4F4F4F5F4F08959095809543
:10415000709561957F4F8F4F9F4F0895EE0FFF1F12
:10416000881F8BBF0790F691E02D1994A29FB00194
:10417000B39FC001A39F700D811D1124911DB29F9B
:10418000700D811D1124911D0895F0DFB7FF089572
:10419000821B930B0895EADFA59F900DB49F900DAD
:1041A000A49F800D911D11240895DF93CF931F9339
:1041B0000F939A9DF02D219FF00D8B9DF00D8A9D00
:1041C000E02DF10D039FF00D029FE00DF11D4E9DBE
:1041D000E00DF11D5E9DF00D4F9DF00D7F936F93EF
:1041E000BF92AF925F934F93D501C0DF8B01AC01BB
:1041F000D701BCDFEB01E80FF91FD6011FD02F91CB
:104200003F91D601B3DFC60FD71FE81FF91FAF914B
:10421000BF9114D02F913F91A9DFC60FD71FE81F80
:10422000F91FD601A3DFE60FF71F9801BE01CF01EA
:1042300011240F911F91CF91DF91089597DF460FC1
:10424000571FC81FD91F08F431960895E894DF93CB
:10425000CF93FC01DB018ADF7F936F93E9019A0121
:10426000AC01BF93AF933F932F93DF017FDF26F421
:104270006C1B7D0B820B930B9E01EB01FC01DEDFBF
:10428000AF91BF912F913F91D9DFBE01CF01F901CD
:104290002F913F91CF91DF910895689401C0E894E8
:1042A000F92FF12B0AF027C0A0E0B0E0E9E5F1E238
:1042B00093C0092E05941AF479D0112392F4F0E8F2
:1042C0000F26FFEFE094F09400951095B094C09401
:1042D000D094A194BF0ACF0ADF0AEF0AFF0A0F0B9E
:1042E0001F0B13D007FC62D0CDB7DEB7ECE090C057
:1042F000689401C0E8948F929F92CF93DF9305D08A
:10430000DF91CF919F908F90089588249924F40194
:10431000E401B0E49F93AA279A158B049C04ED0551
:10432000FE05CF05D007A10798F4AD2FDC2FCF2FC6
:10433000FE2FE92D982C892E982F872F762F652F09
:10434000542F432F322F2227B85031F7BF9127C067
:104350001B2EBF91BB27220F331F441F551F661F03
:10436000771F881F991F881C991CEE1FFF1FCC1FE9
:10437000DD1FAA1FBB1F8A149B04EC05FD05CE059B
:10438000DF05A007B10748F08A189B08EC09FD0972
:10439000CE09DF09A00BB10B21601A94E1F62EF4CF
:1043A0009401AF01BE01CD01000C08956095709598
:1043B0008095909530954095509521953F4F4F4F62
:1043C0005F4F6F4F7F4F8F4F9F4F08952F923F92B8
:1043D0004F925F926F927F928F929F92AF92BF9215
:1043E000CF92DF92EF92FF920F931F93CF93DF93C1
:1043F000CDB7DEB7CA1BDB0B0FB6F894DEBF0FBE1E
:10440000CDBF19942A88398848885F846E847D845A
:104410008C849B84AA84B984C884DF80EE80FD806C
:104420000C811B81AA81B981CE0FD11D0FB6F894E2
:10443000DEBF0FBECDBFED010895FC010590002049
:10444000E9F7809590958E0F9F1F0895F999FECFFB
:1044500092BD81BDF89A992780B50895262FF999C4
:10446000FECF1FBA92BD81BD20BD0FB6F894FA9A57
:10447000F99A0FBE0196089511E0CDEAD1E000E06F
:1044800005C0802FFE016ADE2196011DCE3AD107BC
:0A44900080E00807B1F7F894FFCFB1
:10449A00F40100000301A086010002102524232252
:1044AA000908076D560075410000000000B9138D18
:1044BA0013271356132B133313471300000000EB73
:1044CA0019501E27132A1300000000381E0D0A0077
:0C44DA006E616E00696E66006F76660011
:00000001FF
